{
  "_format": "hh-sol-artifact-1",
  "contractName": "ClaimManagement",
  "sourceName": "contracts/ClaimManagement.sol",
  "abi": [
    {
      "inputs": [],
      "stateMutability": "nonpayable",
      "type": "constructor"
    },
    {
      "anonymous": false,
      "inputs": [
        {
          "indexed": true,
          "internalType": "address",
          "name": "policyAddress",
          "type": "address"
        },
        {
          "indexed": false,
          "internalType": "bool",
          "name": "isApproved",
          "type": "bool"
        },
        {
          "indexed": false,
          "internalType": "uint256",
          "name": "processedDate",
          "type": "uint256"
        }
      ],
      "name": "ClaimProcessed",
      "type": "event"
    },
    {
      "anonymous": false,
      "inputs": [
        {
          "indexed": true,
          "internalType": "address",
          "name": "policyAddress",
          "type": "address"
        },
        {
          "indexed": false,
          "internalType": "uint256",
          "name": "claimAmount",
          "type": "uint256"
        },
        {
          "indexed": false,
          "internalType": "string",
          "name": "claimReason",
          "type": "string"
        },
        {
          "indexed": false,
          "internalType": "uint256",
          "name": "claimDate",
          "type": "uint256"
        }
      ],
      "name": "ClaimSubmitted",
      "type": "event"
    },
    {
      "inputs": [
        {
          "internalType": "address",
          "name": "",
          "type": "address"
        },
        {
          "internalType": "uint256",
          "name": "",
          "type": "uint256"
        }
      ],
      "name": "claims",
      "outputs": [
        {
          "internalType": "address",
          "name": "policyAddress",
          "type": "address"
        },
        {
          "internalType": "uint256",
          "name": "claimAmount",
          "type": "uint256"
        },
        {
          "internalType": "string",
          "name": "claimReason",
          "type": "string"
        },
        {
          "internalType": "bool",
          "name": "isProcessed",
          "type": "bool"
        },
        {
          "internalType": "bool",
          "name": "isApproved",
          "type": "bool"
        },
        {
          "internalType": "uint256",
          "name": "claimDate",
          "type": "uint256"
        }
      ],
      "stateMutability": "view",
      "type": "function"
    },
    {
      "inputs": [
        {
          "internalType": "address",
          "name": "_policyAddress",
          "type": "address"
        }
      ],
      "name": "getClaims",
      "outputs": [
        {
          "components": [
            {
              "internalType": "address",
              "name": "policyAddress",
              "type": "address"
            },
            {
              "internalType": "uint256",
              "name": "claimAmount",
              "type": "uint256"
            },
            {
              "internalType": "string",
              "name": "claimReason",
              "type": "string"
            },
            {
              "internalType": "bool",
              "name": "isProcessed",
              "type": "bool"
            },
            {
              "internalType": "bool",
              "name": "isApproved",
              "type": "bool"
            },
            {
              "internalType": "uint256",
              "name": "claimDate",
              "type": "uint256"
            }
          ],
          "internalType": "struct ClaimManagement.Claim[]",
          "name": "",
          "type": "tuple[]"
        }
      ],
      "stateMutability": "view",
      "type": "function"
    },
    {
      "inputs": [],
      "name": "owner",
      "outputs": [
        {
          "internalType": "address",
          "name": "",
          "type": "address"
        }
      ],
      "stateMutability": "view",
      "type": "function"
    },
    {
      "inputs": [
        {
          "internalType": "address",
          "name": "_policyAddress",
          "type": "address"
        },
        {
          "internalType": "uint256",
          "name": "_claimIndex",
          "type": "uint256"
        },
        {
          "internalType": "bool",
          "name": "_approve",
          "type": "bool"
        }
      ],
      "name": "processClaim",
      "outputs": [],
      "stateMutability": "nonpayable",
      "type": "function"
    },
    {
      "inputs": [
        {
          "internalType": "address",
          "name": "_policyAddress",
          "type": "address"
        },
        {
          "internalType": "uint256",
          "name": "_claimAmount",
          "type": "uint256"
        },
        {
          "internalType": "string",
          "name": "_claimReason",
          "type": "string"
        }
      ],
      "name": "submitClaim",
      "outputs": [],
      "stateMutability": "nonpayable",
      "type": "function"
    }
  ],
  "bytecode": "0x6080806040523461002857600180546001600160a01b0319163317905561091f908161002e8239f35b600080fdfe6080604052600436101561001257600080fd5b60003560e01c806334dc3c66146104145780638da5cb5b146103eb57806393e888e11461029b578063ab541a85146101ef5763d0d46a0b1461005357600080fd5b346101ea576020806003193601126101ea576001600160a01b039081610077610744565b16600052600081526040600020805467ffffffffffffffff81116101d457604051929060056100aa82821b840186610776565b8185528285018094600052836000206000915b848310610169575050505050604051928184019082855251809152604084019160408260051b86010193926000965b8388106100f95786860387f35b90919293948380600192603f198a820301865288519061013660c087845116835284840151858401526040840151908060408501528301906108a9565b9160608082015115159083015260808082015115159083015260a0809101519101529701930197019690939291936100ec565b838660019260409a989a5161017d8161075a565b8c8654168152848601548382015261019760028701610804565b6040820152600386015460ff908181161515606084015260081c1615156080820152600486015460a08201528152019201920191909694966100bd565b634e487b7160e01b600052604160045260246000fd5b600080fd5b346101ea5760403660031901126101ea57610208610744565b6001600160a01b0390811660009081526020819052604090208054602435908110156101ea5761023791610798565b509081541660018201549161024e60028201610804565b60ff61027c60046003850154940154926040519687968752602087015260c0604087015260c08601906108a9565b928181161515606086015260081c161515608084015260a08301520390f35b346101ea5760603660031901126101ea576102b4610744565b604435801515918282036101ea576001546001600160a01b0391908216330361039b57169182600052600060205260036102f46024356040600020610798565b500190815460ff811661034c5761ffff191692151560081b61ff00169290921760011790557fb3914d2bb9046a5371e964de755a8c11ffe451f3029839263dcc74e0d34be9b1906040908151908152426020820152a2005b60405162461bcd60e51b815260206004820152602160248201527f436c61696d2068617320616c7265616479206265656e2070726f6365737365646044820152601760f91b6064820152608490fd5b60405162461bcd60e51b815260206004820152602260248201527f4f6e6c7920746865206f776e65722063616e2070726f6365737320636c61696d604482015261399760f11b6064820152608490fd5b346101ea5760003660031901126101ea576001546040516001600160a01b039091168152602090f35b346101ea5760603660031901126101ea5761042d610744565b67ffffffffffffffff9060246044358381116101ea57366023820112156101ea5780600401359084821161072f57610470601f8301601f19166020016080610776565b81608052368383830101116101ea576000916020918190850160a037608001015260018060a01b0390818316600052600060205260406000206040516104b58161075a565b838516815260208101918335835260408201906080825260006060840152600060808401524260a08401528054906801000000000000000082101561071a579061050491600182018155610798565b93909361070557825184546001600160a01b031916908716178455516001840155518051909681116106f05761053d60028401546107ca565b601f81116106a9575b506020601f821160011461061357918160a0926004947fa5ef4cf34db88b872459155ee866afd264f45ad1cb0061cc6240c1232e19542c999a600092610608575b50508160011b916000199060031b1c19161760028501555b6105d7600385016060830151151560ff801983541691161781556080830151151561ff00825491151560081b169061ff001916179055565b0151910155604051918291358252606060208301526105fa6060830160806108a9565b9442604084015216930390a2005b015190508a80610587565b6002840160005260206000209760005b601f19841681106106915750827fa5ef4cf34db88b872459155ee866afd264f45ad1cb0061cc6240c1232e19542c98996004959360019360a096601f19811610610678575b505050811b01600285015561059f565b015160001960f88460031b161c191690558a8080610668565b828201518a5560019099019860209283019201610623565b600284016000526020600020601f830160051c8101602084106106e9575b601f830160051c820181106106dd575050610546565b600081556001016106c7565b50806106c7565b83634e487b7160e01b60005260416004526000fd5b84634e487b7160e01b60005260006004526000fd5b85634e487b7160e01b60005260416004526000fd5b82634e487b7160e01b60005260416004526000fd5b600435906001600160a01b03821682036101ea57565b60c0810190811067ffffffffffffffff8211176101d457604052565b90601f8019910116810190811067ffffffffffffffff8211176101d457604052565b80548210156107b4576000526005602060002091020190600090565b634e487b7160e01b600052603260045260246000fd5b90600182811c921680156107fa575b60208310146107e457565b634e487b7160e01b600052602260045260246000fd5b91607f16916107d9565b90604051918260008254610817816107ca565b908184526020946001916001811690816000146108875750600114610848575b50505061084692500383610776565b565b600090815285812095935091905b81831061086f5750506108469350820101388080610837565b85548884018501529485019487945091830191610856565b9250505061084694925060ff191682840152151560051b820101388080610837565b919082519283825260005b8481106108d5575050826000602080949584010152601f8019910116010190565b6020818301810151848301820152016108b456fea264697066735822122075a409b5267817cb12055843093a1932e1cf60fecda4469902f73124ed9d70ee64736f6c63430008180033",
  "linkReferences": {},
  "deployedLinkReferences": {}
}