{
  "_format": "hh-sol-artifact-1",
  "contractName": "PolicyContract",
  "sourceName": "contracts/PolicyContract.sol",
  "abi": [
    {
      "inputs": [],
      "stateMutability": "nonpayable",
      "type": "constructor"
    },
    {
      "anonymous": false,
      "inputs": [
        {
          "indexed": true,
          "internalType": "uint256",
          "name": "policyId",
          "type": "uint256"
        },
        {
          "indexed": true,
          "internalType": "address",
          "name": "client",
          "type": "address"
        },
        {
          "indexed": false,
          "internalType": "uint256",
          "name": "claimAmount",
          "type": "uint256"
        },
        {
          "indexed": false,
          "internalType": "string",
          "name": "claimReason",
          "type": "string"
        },
        {
          "indexed": false,
          "internalType": "uint256",
          "name": "claimDate",
          "type": "uint256"
        }
      ],
      "name": "PolicyClaimed",
      "type": "event"
    },
    {
      "anonymous": false,
      "inputs": [
        {
          "indexed": true,
          "internalType": "uint256",
          "name": "policyId",
          "type": "uint256"
        },
        {
          "indexed": true,
          "internalType": "address",
          "name": "client",
          "type": "address"
        },
        {
          "indexed": false,
          "internalType": "uint256",
          "name": "coverageAmount",
          "type": "uint256"
        },
        {
          "indexed": false,
          "internalType": "uint256",
          "name": "premium",
          "type": "uint256"
        },
        {
          "indexed": false,
          "internalType": "uint256",
          "name": "duration",
          "type": "uint256"
        },
        {
          "indexed": false,
          "internalType": "uint256",
          "name": "startDate",
          "type": "uint256"
        },
        {
          "indexed": false,
          "internalType": "uint256",
          "name": "endDate",
          "type": "uint256"
        }
      ],
      "name": "PolicyCreated",
      "type": "event"
    },
    {
      "inputs": [
        {
          "internalType": "address",
          "name": "_client",
          "type": "address"
        },
        {
          "internalType": "string",
          "name": "_name",
          "type": "string"
        },
        {
          "internalType": "string",
          "name": "_dateOfBirth",
          "type": "string"
        },
        {
          "internalType": "string",
          "name": "_gender",
          "type": "string"
        },
        {
          "internalType": "uint256",
          "name": "_premium",
          "type": "uint256"
        },
        {
          "internalType": "uint256",
          "name": "_coverageAmount",
          "type": "uint256"
        },
        {
          "internalType": "uint256",
          "name": "_duration",
          "type": "uint256"
        }
      ],
      "name": "addPolicy",
      "outputs": [],
      "stateMutability": "nonpayable",
      "type": "function"
    },
    {
      "inputs": [
        {
          "internalType": "uint256",
          "name": "policyId",
          "type": "uint256"
        }
      ],
      "name": "checkPolicyStatus",
      "outputs": [
        {
          "internalType": "bool",
          "name": "",
          "type": "bool"
        }
      ],
      "stateMutability": "view",
      "type": "function"
    },
    {
      "inputs": [
        {
          "internalType": "uint256",
          "name": "policyId",
          "type": "uint256"
        },
        {
          "internalType": "uint256",
          "name": "claimAmount",
          "type": "uint256"
        },
        {
          "internalType": "string",
          "name": "claimReason",
          "type": "string"
        }
      ],
      "name": "claimPolicy",
      "outputs": [],
      "stateMutability": "nonpayable",
      "type": "function"
    },
    {
      "inputs": [
        {
          "internalType": "uint256",
          "name": "policyId",
          "type": "uint256"
        }
      ],
      "name": "getPolicyDetails",
      "outputs": [
        {
          "internalType": "address",
          "name": "_client",
          "type": "address"
        },
        {
          "internalType": "uint256",
          "name": "_premium",
          "type": "uint256"
        },
        {
          "internalType": "uint256",
          "name": "_coverageAmount",
          "type": "uint256"
        },
        {
          "internalType": "uint256",
          "name": "_duration",
          "type": "uint256"
        },
        {
          "internalType": "uint256",
          "name": "_startDate",
          "type": "uint256"
        },
        {
          "internalType": "uint256",
          "name": "_endDate",
          "type": "uint256"
        },
        {
          "internalType": "bool",
          "name": "_isActive",
          "type": "bool"
        },
        {
          "internalType": "string",
          "name": "_name",
          "type": "string"
        },
        {
          "internalType": "string",
          "name": "_dateOfBirth",
          "type": "string"
        },
        {
          "internalType": "string",
          "name": "_gender",
          "type": "string"
        }
      ],
      "stateMutability": "view",
      "type": "function"
    },
    {
      "inputs": [],
      "name": "insuranceProvider",
      "outputs": [
        {
          "internalType": "address",
          "name": "",
          "type": "address"
        }
      ],
      "stateMutability": "view",
      "type": "function"
    },
    {
      "inputs": [
        {
          "internalType": "uint256",
          "name": "",
          "type": "uint256"
        }
      ],
      "name": "policies",
      "outputs": [
        {
          "internalType": "address",
          "name": "clientAddress",
          "type": "address"
        },
        {
          "internalType": "string",
          "name": "name",
          "type": "string"
        },
        {
          "internalType": "string",
          "name": "dateOfBirth",
          "type": "string"
        },
        {
          "internalType": "string",
          "name": "gender",
          "type": "string"
        },
        {
          "internalType": "uint256",
          "name": "premium",
          "type": "uint256"
        },
        {
          "internalType": "uint256",
          "name": "coverageAmount",
          "type": "uint256"
        },
        {
          "internalType": "uint256",
          "name": "duration",
          "type": "uint256"
        },
        {
          "internalType": "uint256",
          "name": "startDate",
          "type": "uint256"
        },
        {
          "internalType": "uint256",
          "name": "endDate",
          "type": "uint256"
        },
        {
          "internalType": "bool",
          "name": "isActive",
          "type": "bool"
        }
      ],
      "stateMutability": "view",
      "type": "function"
    },
    {
      "inputs": [],
      "name": "policyCount",
      "outputs": [
        {
          "internalType": "uint256",
          "name": "",
          "type": "uint256"
        }
      ],
      "stateMutability": "view",
      "type": "function"
    }
  ],
  "bytecode": "0x6080806040523461002857600080546001600160a01b03191633179055610d57908161002e8239f35b600080fdfe6080604052600436101561001257600080fd5b60003560e01c806344ada30514610a945780636edc818f146104675780639955f67c1461043e578063aa37e8c4146102ac578063cc0380101461016b578063d3e894831461008c5763de54d4291461006957600080fd5b34610087576000366003190112610087576020600154604051908152f35b600080fd5b3461008757602036600319011261008757600435600090815260026020526040902080546001600160a01b03166100c560018301610bcc565b916100d260028201610bcc565b6100de60038301610bcc565b91600481015492600582015460068301549061014460078501549361013660ff6009600889015498015416976101286040519c8d809d6020610140928392815201528d0190610b52565b908b820360408d0152610b52565b9089820360608b0152610b52565b95608088015260a087015260c086015260e085015261010084015215156101208301520390f35b346100875760203660031901126100875760043580600052600260205260406000209060405161019a81610abc565b82546001600160a01b039081168252906101b660018501610bcc565b60208201908152936101ca60028201610bcc565b60408301908152906101de60038201610bcc565b91606084019283526004820154958660808601526005830154978860a08701526006840154968760c088015260078501548060e08901526008860154916101009683888b01526009015460ff16986101209915158a82015251169361024290610c71565b925194519651986040519b8c9b610140968d5260208d015260408c015260608b015260808a015260a0890152151560c08801528060e0880152860161028691610b52565b908582039086015261029791610b52565b90838203908401526102a891610b52565b0390f35b346100875760603660031901126100875760243560043560443567ffffffffffffffff8111610087576102e3903690600401610afb565b91816000526020906002825260406000209360098501805460ff8116156103f95786546001600160a01b031696338890036103b6576005015484116103715760ff1916905560405191825260609282018390527f2eef77a6825c6c3ee60b1efc16534872d9997ba98c06dfe1f2284d912f4d480a92829161036691830190610b52565b4260408301520390a3005b60405162461bcd60e51b815260048101869052601e60248201527f436c61696d20616d6f756e74206578636565647320636f7665726167652e00006044820152606490fd5b6064866040519062461bcd60e51b825280600483015260248201527f4f6e6c792074686520706f6c696379686f6c6465722063616e20636c61696d2e6044820152fd5b60405162461bcd60e51b815260048101869052601b60248201527f506f6c696379206973206e6f206c6f6e676572206163746976652e00000000006044820152606490fd5b34610087576000366003190112610087576000546040516001600160a01b039091168152602090f35b346100875760e0366003190112610087576004356001600160a01b03811681036100875760243567ffffffffffffffff8111610087576104ab903690600401610afb565b60443567ffffffffffffffff8111610087576104cb903690600401610afb565b9160643567ffffffffffffffff8111610087576104ec903690600401610afb565b6000549092906001600160a01b03163303610a3257600154926000198414610a1c576001840160015562015180948560c435029560c43587041460c435151715610a1c578542014211610a1c576040519261054684610abc565b60018060a01b0385168452602084015260408301526060820152608435608082015260a43560a082015260c43560c08201524260e08201528342016101008201526001610120820152826000526002602052604060002060018060a01b038251166bffffffffffffffffffffffff60a01b825416178155602082015180519067ffffffffffffffff82116108665781906105e36001850154610b92565b601f81116109c9575b50602090601f83116001146109575760009261094c575b50508160011b916000199060031b1c19161760018201555b604082015180519067ffffffffffffffff82116108665781906106416002850154610b92565b601f81116108f9575b50602090601f83116001146108875760009261087c575b50508160011b916000199060031b1c19161760028201555b606082015180519067ffffffffffffffff82116108665761069d6003840154610b92565b601f811161081f575b50602090601f8311600114610784577fef748308c2d5ff1a7d773a689969e7090b4d5d911b95e585cc635b14bc37648195938360a0969461012094600994600092610779575b50508160011b916000199060031b1c19161760038201555b6080840151600482015585840151600582015560c0840151600682015560e08401516007820155610100840151600882015501910151151560ff801983541691161790556040519460a4358652608435602087015260c435604087015242606087015242016080860152600180831b031693a3005b015190508b806106ec565b906003840160005260206000209160005b601f1985168110610807575093600184610120946009947fef748308c2d5ff1a7d773a689969e7090b4d5d911b95e585cc635b14bc3764819a9860a09a98601f198116106107ee575b505050811b016003820155610704565b015160001960f88460031b161c191690558b80806107de565b91926020600181928685015181550194019201610795565b600384016000526020600020601f840160051c81016020851061085f575b601f830160051c820181106108535750506106a6565b6000815560010161083d565b508061083d565b634e487b7160e01b600052604160045260246000fd5b015190508780610661565b9250600284016000526020600020906000935b601f19841685106108de576001945083601f198116106108c5575b505050811b016002820155610679565b015160001960f88460031b161c191690558780806108b5565b8181015183556020948501946001909301929091019061089a565b909150600284016000526020600020601f840160051c810160208510610945575b90849392915b601f830160051c8201811061093657505061064a565b60008155859450600101610920565b508061091a565b015190508780610603565b9250600184016000526020600020906000935b601f19841685106109ae576001945083601f19811610610995575b505050811b01600182015561061b565b015160001960f88460031b161c19169055878080610985565b8181015183556020948501946001909301929091019061096a565b909150600184016000526020600020601f840160051c810160208510610a15575b90849392915b601f830160051c82018110610a065750506105ec565b600081558594506001016109f0565b50806109ea565b634e487b7160e01b600052601160045260246000fd5b60405162461bcd60e51b815260206004820152603460248201527f4f6e6c792074686520696e737572616e63652070726f76696465722063616e206044820152733832b93337b936903a3434b99030b1ba34b7b71760611b6064820152608490fd5b34610087576020366003190112610087576020610ab2600435610c71565b6040519015158152f35b610140810190811067ffffffffffffffff82111761086657604052565b90601f8019910116810190811067ffffffffffffffff82111761086657604052565b81601f820112156100875780359067ffffffffffffffff82116108665760405192610b30601f8401601f191660200185610ad9565b8284526020838301011161008757816000926020809301838601378301015290565b919082519283825260005b848110610b7e575050826000602080949584010152601f8019910116010190565b602081830181015184830182015201610b5d565b90600182811c92168015610bc2575b6020831014610bac57565b634e487b7160e01b600052602260045260246000fd5b91607f1691610ba1565b90604051918260008254610bdf81610b92565b90818452602094600191600181169081600014610c4f5750600114610c10575b505050610c0e92500383610ad9565b565b600090815285812095935091905b818310610c37575050610c0e9350820101388080610bff565b85548884018501529485019487945091830191610c1e565b92505050610c0e94925060ff191682840152151560051b820101388080610bff565b60005260026020526101206040600020604051610c8d81610abc565b81546001600160a01b03168152610ca660018301610bcc565b6020820152610cb760028301610bcc565b6040820152610cc860038301610bcc565b606082015260048201546080820152600582015460a0820152600682015460c0820152600782015460e082015260ff6009600884015493846101008501520154161515928391015281610d19575090565b90504211159056fea26469706673582212206ffa9c9d668a2905c83f1e7ac2cb74e48eb3fad097ab48267c57b0bd4047011764736f6c63430008180033",
  "linkReferences": {},
  "deployedLinkReferences": {}
}