{"contracts/ClaimManagement.sol":{"ClaimManagement":{"abi":[{"inputs":[],"stateMutability":"nonpayable","type":"constructor"},{"anonymous":false,"inputs":[{"indexed":true,"internalType":"address","name":"policyAddress","type":"address"},{"indexed":false,"internalType":"bool","name":"isApproved","type":"bool"},{"indexed":false,"internalType":"uint256","name":"processedDate","type":"uint256"}],"name":"ClaimProcessed","type":"event"},{"anonymous":false,"inputs":[{"indexed":true,"internalType":"address","name":"policyAddress","type":"address"},{"indexed":false,"internalType":"uint256","name":"claimAmount","type":"uint256"},{"indexed":false,"internalType":"string","name":"claimReason","type":"string"},{"indexed":false,"internalType":"uint256","name":"claimDate","type":"uint256"}],"name":"ClaimSubmitted","type":"event"},{"inputs":[{"internalType":"address","name":"","type":"address"},{"internalType":"uint256","name":"","type":"uint256"}],"name":"claims","outputs":[{"internalType":"address","name":"policyAddress","type":"address"},{"internalType":"uint256","name":"claimAmount","type":"uint256"},{"internalType":"string","name":"claimReason","type":"string"},{"internalType":"bool","name":"isProcessed","type":"bool"},{"internalType":"bool","name":"isApproved","type":"bool"},{"internalType":"uint256","name":"claimDate","type":"uint256"}],"stateMutability":"view","type":"function"},{"inputs":[{"internalType":"address","name":"_policyAddress","type":"address"}],"name":"getClaims","outputs":[{"components":[{"internalType":"address","name":"policyAddress","type":"address"},{"internalType":"uint256","name":"claimAmount","type":"uint256"},{"internalType":"string","name":"claimReason","type":"string"},{"internalType":"bool","name":"isProcessed","type":"bool"},{"internalType":"bool","name":"isApproved","type":"bool"},{"internalType":"uint256","name":"claimDate","type":"uint256"}],"internalType":"struct ClaimManagement.Claim[]","name":"","type":"tuple[]"}],"stateMutability":"view","type":"function"},{"inputs":[],"name":"owner","outputs":[{"internalType":"address","name":"","type":"address"}],"stateMutability":"view","type":"function"},{"inputs":[{"internalType":"address","name":"_policyAddress","type":"address"},{"internalType":"uint256","name":"_claimIndex","type":"uint256"},{"internalType":"bool","name":"_approve","type":"bool"}],"name":"processClaim","outputs":[],"stateMutability":"nonpayable","type":"function"},{"inputs":[{"internalType":"address","name":"_policyAddress","type":"address"},{"internalType":"uint256","name":"_claimAmount","type":"uint256"},{"internalType":"string","name":"_claimReason","type":"string"}],"name":"submitClaim","outputs":[],"stateMutability":"nonpayable","type":"function"}],"devdoc":{"kind":"dev","methods":{},"version":1},"evm":{"bytecode":{"linkReferences":{},"object":"6080806040523461002857600180546001600160a01b0319163317905561091f908161002e8239f35b600080fdfe6080604052600436101561001257600080fd5b60003560e01c806334dc3c66146104145780638da5cb5b146103eb57806393e888e11461029b578063ab541a85146101ef5763d0d46a0b1461005357600080fd5b346101ea576020806003193601126101ea576001600160a01b039081610077610744565b16600052600081526040600020805467ffffffffffffffff81116101d457604051929060056100aa82821b840186610776565b8185528285018094600052836000206000915b848310610169575050505050604051928184019082855251809152604084019160408260051b86010193926000965b8388106100f95786860387f35b90919293948380600192603f198a820301865288519061013660c087845116835284840151858401526040840151908060408501528301906108a9565b9160608082015115159083015260808082015115159083015260a0809101519101529701930197019690939291936100ec565b838660019260409a989a5161017d8161075a565b8c8654168152848601548382015261019760028701610804565b6040820152600386015460ff908181161515606084015260081c1615156080820152600486015460a08201528152019201920191909694966100bd565b634e487b7160e01b600052604160045260246000fd5b600080fd5b346101ea5760403660031901126101ea57610208610744565b6001600160a01b0390811660009081526020819052604090208054602435908110156101ea5761023791610798565b509081541660018201549161024e60028201610804565b60ff61027c60046003850154940154926040519687968752602087015260c0604087015260c08601906108a9565b928181161515606086015260081c161515608084015260a08301520390f35b346101ea5760603660031901126101ea576102b4610744565b604435801515918282036101ea576001546001600160a01b0391908216330361039b57169182600052600060205260036102f46024356040600020610798565b500190815460ff811661034c5761ffff191692151560081b61ff00169290921760011790557fb3914d2bb9046a5371e964de755a8c11ffe451f3029839263dcc74e0d34be9b1906040908151908152426020820152a2005b60405162461bcd60e51b815260206004820152602160248201527f436c61696d2068617320616c7265616479206265656e2070726f6365737365646044820152601760f91b6064820152608490fd5b60405162461bcd60e51b815260206004820152602260248201527f4f6e6c7920746865206f776e65722063616e2070726f6365737320636c61696d604482015261399760f11b6064820152608490fd5b346101ea5760003660031901126101ea576001546040516001600160a01b039091168152602090f35b346101ea5760603660031901126101ea5761042d610744565b67ffffffffffffffff9060246044358381116101ea57366023820112156101ea5780600401359084821161072f57610470601f8301601f19166020016080610776565b81608052368383830101116101ea576000916020918190850160a037608001015260018060a01b0390818316600052600060205260406000206040516104b58161075a565b838516815260208101918335835260408201906080825260006060840152600060808401524260a08401528054906801000000000000000082101561071a579061050491600182018155610798565b93909361070557825184546001600160a01b031916908716178455516001840155518051909681116106f05761053d60028401546107ca565b601f81116106a9575b506020601f821160011461061357918160a0926004947fa5ef4cf34db88b872459155ee866afd264f45ad1cb0061cc6240c1232e19542c999a600092610608575b50508160011b916000199060031b1c19161760028501555b6105d7600385016060830151151560ff801983541691161781556080830151151561ff00825491151560081b169061ff001916179055565b0151910155604051918291358252606060208301526105fa6060830160806108a9565b9442604084015216930390a2005b015190508a80610587565b6002840160005260206000209760005b601f19841681106106915750827fa5ef4cf34db88b872459155ee866afd264f45ad1cb0061cc6240c1232e19542c98996004959360019360a096601f19811610610678575b505050811b01600285015561059f565b015160001960f88460031b161c191690558a8080610668565b828201518a5560019099019860209283019201610623565b600284016000526020600020601f830160051c8101602084106106e9575b601f830160051c820181106106dd575050610546565b600081556001016106c7565b50806106c7565b83634e487b7160e01b60005260416004526000fd5b84634e487b7160e01b60005260006004526000fd5b85634e487b7160e01b60005260416004526000fd5b82634e487b7160e01b60005260416004526000fd5b600435906001600160a01b03821682036101ea57565b60c0810190811067ffffffffffffffff8211176101d457604052565b90601f8019910116810190811067ffffffffffffffff8211176101d457604052565b80548210156107b4576000526005602060002091020190600090565b634e487b7160e01b600052603260045260246000fd5b90600182811c921680156107fa575b60208310146107e457565b634e487b7160e01b600052602260045260246000fd5b91607f16916107d9565b90604051918260008254610817816107ca565b908184526020946001916001811690816000146108875750600114610848575b50505061084692500383610776565b565b600090815285812095935091905b81831061086f5750506108469350820101388080610837565b85548884018501529485019487945091830191610856565b9250505061084694925060ff191682840152151560051b820101388080610837565b919082519283825260005b8481106108d5575050826000602080949584010152601f8019910116010190565b6020818301810151848301820152016108b456fea264697066735822122075a409b5267817cb12055843093a1932e1cf60fecda4469902f73124ed9d70ee64736f6c63430008180033","opcodes":"PUSH1 0x80 DUP1 PUSH1 0x40 MSTORE CALLVALUE PUSH2 0x28 JUMPI PUSH1 0x1 DUP1 SLOAD PUSH1 0x1 PUSH1 0x1 PUSH1 0xA0 SHL SUB NOT AND CALLER OR SWAP1 SSTORE PUSH2 0x91F SWAP1 DUP2 PUSH2 0x2E DUP3 CODECOPY RETURN JUMPDEST PUSH1 0x0 DUP1 REVERT INVALID PUSH1 0x80 PUSH1 0x40 MSTORE PUSH1 0x4 CALLDATASIZE LT ISZERO PUSH2 0x12 JUMPI PUSH1 0x0 DUP1 REVERT JUMPDEST PUSH1 0x0 CALLDATALOAD PUSH1 0xE0 SHR DUP1 PUSH4 0x34DC3C66 EQ PUSH2 0x414 JUMPI DUP1 PUSH4 0x8DA5CB5B EQ PUSH2 0x3EB JUMPI DUP1 PUSH4 0x93E888E1 EQ PUSH2 0x29B JUMPI DUP1 PUSH4 0xAB541A85 EQ PUSH2 0x1EF JUMPI PUSH4 0xD0D46A0B EQ PUSH2 0x53 JUMPI PUSH1 0x0 DUP1 REVERT JUMPDEST CALLVALUE PUSH2 0x1EA JUMPI PUSH1 0x20 DUP1 PUSH1 0x3 NOT CALLDATASIZE ADD SLT PUSH2 0x1EA JUMPI PUSH1 0x1 PUSH1 0x1 PUSH1 0xA0 SHL SUB SWAP1 DUP2 PUSH2 0x77 PUSH2 0x744 JUMP JUMPDEST AND PUSH1 0x0 MSTORE PUSH1 0x0 DUP2 MSTORE PUSH1 0x40 PUSH1 0x0 KECCAK256 DUP1 SLOAD PUSH8 0xFFFFFFFFFFFFFFFF DUP2 GT PUSH2 0x1D4 JUMPI PUSH1 0x40 MLOAD SWAP3 SWAP1 PUSH1 0x5 PUSH2 0xAA DUP3 DUP3 SHL DUP5 ADD DUP7 PUSH2 0x776 JUMP JUMPDEST DUP2 DUP6 MSTORE DUP3 DUP6 ADD DUP1 SWAP5 PUSH1 0x0 MSTORE DUP4 PUSH1 0x0 KECCAK256 PUSH1 0x0 SWAP2 JUMPDEST DUP5 DUP4 LT PUSH2 0x169 JUMPI POP POP POP POP POP PUSH1 0x40 MLOAD SWAP3 DUP2 DUP5 ADD SWAP1 DUP3 DUP6 MSTORE MLOAD DUP1 SWAP2 MSTORE PUSH1 0x40 DUP5 ADD SWAP2 PUSH1 0x40 DUP3 PUSH1 0x5 SHL DUP7 ADD ADD SWAP4 SWAP3 PUSH1 0x0 SWAP7 JUMPDEST DUP4 DUP9 LT PUSH2 0xF9 JUMPI DUP7 DUP7 SUB DUP8 RETURN JUMPDEST SWAP1 SWAP2 SWAP3 SWAP4 SWAP5 DUP4 DUP1 PUSH1 0x1 SWAP3 PUSH1 0x3F NOT DUP11 DUP3 SUB ADD DUP7 MSTORE DUP9 MLOAD SWAP1 PUSH2 0x136 PUSH1 0xC0 DUP8 DUP5 MLOAD AND DUP4 MSTORE DUP5 DUP5 ADD MLOAD DUP6 DUP5 ADD MSTORE PUSH1 0x40 DUP5 ADD MLOAD SWAP1 DUP1 PUSH1 0x40 DUP6 ADD MSTORE DUP4 ADD SWAP1 PUSH2 0x8A9 JUMP JUMPDEST SWAP2 PUSH1 0x60 DUP1 DUP3 ADD MLOAD ISZERO ISZERO SWAP1 DUP4 ADD MSTORE PUSH1 0x80 DUP1 DUP3 ADD MLOAD ISZERO ISZERO SWAP1 DUP4 ADD MSTORE PUSH1 0xA0 DUP1 SWAP2 ADD MLOAD SWAP2 ADD MSTORE SWAP8 ADD SWAP4 ADD SWAP8 ADD SWAP7 SWAP1 SWAP4 SWAP3 SWAP2 SWAP4 PUSH2 0xEC JUMP JUMPDEST DUP4 DUP7 PUSH1 0x1 SWAP3 PUSH1 0x40 SWAP11 SWAP9 SWAP11 MLOAD PUSH2 0x17D DUP2 PUSH2 0x75A JUMP JUMPDEST DUP13 DUP7 SLOAD AND DUP2 MSTORE DUP5 DUP7 ADD SLOAD DUP4 DUP3 ADD MSTORE PUSH2 0x197 PUSH1 0x2 DUP8 ADD PUSH2 0x804 JUMP JUMPDEST PUSH1 0x40 DUP3 ADD MSTORE PUSH1 0x3 DUP7 ADD SLOAD PUSH1 0xFF SWAP1 DUP2 DUP2 AND ISZERO ISZERO PUSH1 0x60 DUP5 ADD MSTORE PUSH1 0x8 SHR AND ISZERO ISZERO PUSH1 0x80 DUP3 ADD MSTORE PUSH1 0x4 DUP7 ADD SLOAD PUSH1 0xA0 DUP3 ADD MSTORE DUP2 MSTORE ADD SWAP3 ADD SWAP3 ADD SWAP2 SWAP1 SWAP7 SWAP5 SWAP7 PUSH2 0xBD JUMP JUMPDEST PUSH4 0x4E487B71 PUSH1 0xE0 SHL PUSH1 0x0 MSTORE PUSH1 0x41 PUSH1 0x4 MSTORE PUSH1 0x24 PUSH1 0x0 REVERT JUMPDEST PUSH1 0x0 DUP1 REVERT JUMPDEST CALLVALUE PUSH2 0x1EA JUMPI PUSH1 0x40 CALLDATASIZE PUSH1 0x3 NOT ADD SLT PUSH2 0x1EA JUMPI PUSH2 0x208 PUSH2 0x744 JUMP JUMPDEST PUSH1 0x1 PUSH1 0x1 PUSH1 0xA0 SHL SUB SWAP1 DUP2 AND PUSH1 0x0 SWAP1 DUP2 MSTORE PUSH1 0x20 DUP2 SWAP1 MSTORE PUSH1 0x40 SWAP1 KECCAK256 DUP1 SLOAD PUSH1 0x24 CALLDATALOAD SWAP1 DUP2 LT ISZERO PUSH2 0x1EA JUMPI PUSH2 0x237 SWAP2 PUSH2 0x798 JUMP JUMPDEST POP SWAP1 DUP2 SLOAD AND PUSH1 0x1 DUP3 ADD SLOAD SWAP2 PUSH2 0x24E PUSH1 0x2 DUP3 ADD PUSH2 0x804 JUMP JUMPDEST PUSH1 0xFF PUSH2 0x27C PUSH1 0x4 PUSH1 0x3 DUP6 ADD SLOAD SWAP5 ADD SLOAD SWAP3 PUSH1 0x40 MLOAD SWAP7 DUP8 SWAP7 DUP8 MSTORE PUSH1 0x20 DUP8 ADD MSTORE PUSH1 0xC0 PUSH1 0x40 DUP8 ADD MSTORE PUSH1 0xC0 DUP7 ADD SWAP1 PUSH2 0x8A9 JUMP JUMPDEST SWAP3 DUP2 DUP2 AND ISZERO ISZERO PUSH1 0x60 DUP7 ADD MSTORE PUSH1 0x8 SHR AND ISZERO ISZERO PUSH1 0x80 DUP5 ADD MSTORE PUSH1 0xA0 DUP4 ADD MSTORE SUB SWAP1 RETURN JUMPDEST CALLVALUE PUSH2 0x1EA JUMPI PUSH1 0x60 CALLDATASIZE PUSH1 0x3 NOT ADD SLT PUSH2 0x1EA JUMPI PUSH2 0x2B4 PUSH2 0x744 JUMP JUMPDEST PUSH1 0x44 CALLDATALOAD DUP1 ISZERO ISZERO SWAP2 DUP3 DUP3 SUB PUSH2 0x1EA JUMPI PUSH1 0x1 SLOAD PUSH1 0x1 PUSH1 0x1 PUSH1 0xA0 SHL SUB SWAP2 SWAP1 DUP3 AND CALLER SUB PUSH2 0x39B JUMPI AND SWAP2 DUP3 PUSH1 0x0 MSTORE PUSH1 0x0 PUSH1 0x20 MSTORE PUSH1 0x3 PUSH2 0x2F4 PUSH1 0x24 CALLDATALOAD PUSH1 0x40 PUSH1 0x0 KECCAK256 PUSH2 0x798 JUMP JUMPDEST POP ADD SWAP1 DUP2 SLOAD PUSH1 0xFF DUP2 AND PUSH2 0x34C JUMPI PUSH2 0xFFFF NOT AND SWAP3 ISZERO ISZERO PUSH1 0x8 SHL PUSH2 0xFF00 AND SWAP3 SWAP1 SWAP3 OR PUSH1 0x1 OR SWAP1 SSTORE PUSH32 0xB3914D2BB9046A5371E964DE755A8C11FFE451F3029839263DCC74E0D34BE9B1 SWAP1 PUSH1 0x40 SWAP1 DUP2 MLOAD SWAP1 DUP2 MSTORE TIMESTAMP PUSH1 0x20 DUP3 ADD MSTORE LOG2 STOP JUMPDEST PUSH1 0x40 MLOAD PUSH3 0x461BCD PUSH1 0xE5 SHL DUP2 MSTORE PUSH1 0x20 PUSH1 0x4 DUP3 ADD MSTORE PUSH1 0x21 PUSH1 0x24 DUP3 ADD MSTORE PUSH32 0x436C61696D2068617320616C7265616479206265656E2070726F636573736564 PUSH1 0x44 DUP3 ADD MSTORE PUSH1 0x17 PUSH1 0xF9 SHL PUSH1 0x64 DUP3 ADD MSTORE PUSH1 0x84 SWAP1 REVERT JUMPDEST PUSH1 0x40 MLOAD PUSH3 0x461BCD PUSH1 0xE5 SHL DUP2 MSTORE PUSH1 0x20 PUSH1 0x4 DUP3 ADD MSTORE PUSH1 0x22 PUSH1 0x24 DUP3 ADD MSTORE PUSH32 0x4F6E6C7920746865206F776E65722063616E2070726F6365737320636C61696D PUSH1 0x44 DUP3 ADD MSTORE PUSH2 0x3997 PUSH1 0xF1 SHL PUSH1 0x64 DUP3 ADD MSTORE PUSH1 0x84 SWAP1 REVERT JUMPDEST CALLVALUE PUSH2 0x1EA JUMPI PUSH1 0x0 CALLDATASIZE PUSH1 0x3 NOT ADD SLT PUSH2 0x1EA JUMPI PUSH1 0x1 SLOAD PUSH1 0x40 MLOAD PUSH1 0x1 PUSH1 0x1 PUSH1 0xA0 SHL SUB SWAP1 SWAP2 AND DUP2 MSTORE PUSH1 0x20 SWAP1 RETURN JUMPDEST CALLVALUE PUSH2 0x1EA JUMPI PUSH1 0x60 CALLDATASIZE PUSH1 0x3 NOT ADD SLT PUSH2 0x1EA JUMPI PUSH2 0x42D PUSH2 0x744 JUMP JUMPDEST PUSH8 0xFFFFFFFFFFFFFFFF SWAP1 PUSH1 0x24 PUSH1 0x44 CALLDATALOAD DUP4 DUP2 GT PUSH2 0x1EA JUMPI CALLDATASIZE PUSH1 0x23 DUP3 ADD SLT ISZERO PUSH2 0x1EA JUMPI DUP1 PUSH1 0x4 ADD CALLDATALOAD SWAP1 DUP5 DUP3 GT PUSH2 0x72F JUMPI PUSH2 0x470 PUSH1 0x1F DUP4 ADD PUSH1 0x1F NOT AND PUSH1 0x20 ADD PUSH1 0x80 PUSH2 0x776 JUMP JUMPDEST DUP2 PUSH1 0x80 MSTORE CALLDATASIZE DUP4 DUP4 DUP4 ADD ADD GT PUSH2 0x1EA JUMPI PUSH1 0x0 SWAP2 PUSH1 0x20 SWAP2 DUP2 SWAP1 DUP6 ADD PUSH1 0xA0 CALLDATACOPY PUSH1 0x80 ADD ADD MSTORE PUSH1 0x1 DUP1 PUSH1 0xA0 SHL SUB SWAP1 DUP2 DUP4 AND PUSH1 0x0 MSTORE PUSH1 0x0 PUSH1 0x20 MSTORE PUSH1 0x40 PUSH1 0x0 KECCAK256 PUSH1 0x40 MLOAD PUSH2 0x4B5 DUP2 PUSH2 0x75A JUMP JUMPDEST DUP4 DUP6 AND DUP2 MSTORE PUSH1 0x20 DUP2 ADD SWAP2 DUP4 CALLDATALOAD DUP4 MSTORE PUSH1 0x40 DUP3 ADD SWAP1 PUSH1 0x80 DUP3 MSTORE PUSH1 0x0 PUSH1 0x60 DUP5 ADD MSTORE PUSH1 0x0 PUSH1 0x80 DUP5 ADD MSTORE TIMESTAMP PUSH1 0xA0 DUP5 ADD MSTORE DUP1 SLOAD SWAP1 PUSH9 0x10000000000000000 DUP3 LT ISZERO PUSH2 0x71A JUMPI SWAP1 PUSH2 0x504 SWAP2 PUSH1 0x1 DUP3 ADD DUP2 SSTORE PUSH2 0x798 JUMP JUMPDEST SWAP4 SWAP1 SWAP4 PUSH2 0x705 JUMPI DUP3 MLOAD DUP5 SLOAD PUSH1 0x1 PUSH1 0x1 PUSH1 0xA0 SHL SUB NOT AND SWAP1 DUP8 AND OR DUP5 SSTORE MLOAD PUSH1 0x1 DUP5 ADD SSTORE MLOAD DUP1 MLOAD SWAP1 SWAP7 DUP2 GT PUSH2 0x6F0 JUMPI PUSH2 0x53D PUSH1 0x2 DUP5 ADD SLOAD PUSH2 0x7CA JUMP JUMPDEST PUSH1 0x1F DUP2 GT PUSH2 0x6A9 JUMPI JUMPDEST POP PUSH1 0x20 PUSH1 0x1F DUP3 GT PUSH1 0x1 EQ PUSH2 0x613 JUMPI SWAP2 DUP2 PUSH1 0xA0 SWAP3 PUSH1 0x4 SWAP5 PUSH32 0xA5EF4CF34DB88B872459155EE866AFD264F45AD1CB0061CC6240C1232E19542C SWAP10 SWAP11 PUSH1 0x0 SWAP3 PUSH2 0x608 JUMPI JUMPDEST POP POP DUP2 PUSH1 0x1 SHL SWAP2 PUSH1 0x0 NOT SWAP1 PUSH1 0x3 SHL SHR NOT AND OR PUSH1 0x2 DUP6 ADD SSTORE JUMPDEST PUSH2 0x5D7 PUSH1 0x3 DUP6 ADD PUSH1 0x60 DUP4 ADD MLOAD ISZERO ISZERO PUSH1 0xFF DUP1 NOT DUP4 SLOAD AND SWAP2 AND OR DUP2 SSTORE PUSH1 0x80 DUP4 ADD MLOAD ISZERO ISZERO PUSH2 0xFF00 DUP3 SLOAD SWAP2 ISZERO ISZERO PUSH1 0x8 SHL AND SWAP1 PUSH2 0xFF00 NOT AND OR SWAP1 SSTORE JUMP JUMPDEST ADD MLOAD SWAP2 ADD SSTORE PUSH1 0x40 MLOAD SWAP2 DUP3 SWAP2 CALLDATALOAD DUP3 MSTORE PUSH1 0x60 PUSH1 0x20 DUP4 ADD MSTORE PUSH2 0x5FA PUSH1 0x60 DUP4 ADD PUSH1 0x80 PUSH2 0x8A9 JUMP JUMPDEST SWAP5 TIMESTAMP PUSH1 0x40 DUP5 ADD MSTORE AND SWAP4 SUB SWAP1 LOG2 STOP JUMPDEST ADD MLOAD SWAP1 POP DUP11 DUP1 PUSH2 0x587 JUMP JUMPDEST PUSH1 0x2 DUP5 ADD PUSH1 0x0 MSTORE PUSH1 0x20 PUSH1 0x0 KECCAK256 SWAP8 PUSH1 0x0 JUMPDEST PUSH1 0x1F NOT DUP5 AND DUP2 LT PUSH2 0x691 JUMPI POP DUP3 PUSH32 0xA5EF4CF34DB88B872459155EE866AFD264F45AD1CB0061CC6240C1232E19542C SWAP9 SWAP10 PUSH1 0x4 SWAP6 SWAP4 PUSH1 0x1 SWAP4 PUSH1 0xA0 SWAP7 PUSH1 0x1F NOT DUP2 AND LT PUSH2 0x678 JUMPI JUMPDEST POP POP POP DUP2 SHL ADD PUSH1 0x2 DUP6 ADD SSTORE PUSH2 0x59F JUMP JUMPDEST ADD MLOAD PUSH1 0x0 NOT PUSH1 0xF8 DUP5 PUSH1 0x3 SHL AND SHR NOT AND SWAP1 SSTORE DUP11 DUP1 DUP1 PUSH2 0x668 JUMP JUMPDEST DUP3 DUP3 ADD MLOAD DUP11 SSTORE PUSH1 0x1 SWAP1 SWAP10 ADD SWAP9 PUSH1 0x20 SWAP3 DUP4 ADD SWAP3 ADD PUSH2 0x623 JUMP JUMPDEST PUSH1 0x2 DUP5 ADD PUSH1 0x0 MSTORE PUSH1 0x20 PUSH1 0x0 KECCAK256 PUSH1 0x1F DUP4 ADD PUSH1 0x5 SHR DUP2 ADD PUSH1 0x20 DUP5 LT PUSH2 0x6E9 JUMPI JUMPDEST PUSH1 0x1F DUP4 ADD PUSH1 0x5 SHR DUP3 ADD DUP2 LT PUSH2 0x6DD JUMPI POP POP PUSH2 0x546 JUMP JUMPDEST PUSH1 0x0 DUP2 SSTORE PUSH1 0x1 ADD PUSH2 0x6C7 JUMP JUMPDEST POP DUP1 PUSH2 0x6C7 JUMP JUMPDEST DUP4 PUSH4 0x4E487B71 PUSH1 0xE0 SHL PUSH1 0x0 MSTORE PUSH1 0x41 PUSH1 0x4 MSTORE PUSH1 0x0 REVERT JUMPDEST DUP5 PUSH4 0x4E487B71 PUSH1 0xE0 SHL PUSH1 0x0 MSTORE PUSH1 0x0 PUSH1 0x4 MSTORE PUSH1 0x0 REVERT JUMPDEST DUP6 PUSH4 0x4E487B71 PUSH1 0xE0 SHL PUSH1 0x0 MSTORE PUSH1 0x41 PUSH1 0x4 MSTORE PUSH1 0x0 REVERT JUMPDEST DUP3 PUSH4 0x4E487B71 PUSH1 0xE0 SHL PUSH1 0x0 MSTORE PUSH1 0x41 PUSH1 0x4 MSTORE PUSH1 0x0 REVERT JUMPDEST PUSH1 0x4 CALLDATALOAD SWAP1 PUSH1 0x1 PUSH1 0x1 PUSH1 0xA0 SHL SUB DUP3 AND DUP3 SUB PUSH2 0x1EA JUMPI JUMP JUMPDEST PUSH1 0xC0 DUP2 ADD SWAP1 DUP2 LT PUSH8 0xFFFFFFFFFFFFFFFF DUP3 GT OR PUSH2 0x1D4 JUMPI PUSH1 0x40 MSTORE JUMP JUMPDEST SWAP1 PUSH1 0x1F DUP1 NOT SWAP2 ADD AND DUP2 ADD SWAP1 DUP2 LT PUSH8 0xFFFFFFFFFFFFFFFF DUP3 GT OR PUSH2 0x1D4 JUMPI PUSH1 0x40 MSTORE JUMP JUMPDEST DUP1 SLOAD DUP3 LT ISZERO PUSH2 0x7B4 JUMPI PUSH1 0x0 MSTORE PUSH1 0x5 PUSH1 0x20 PUSH1 0x0 KECCAK256 SWAP2 MUL ADD SWAP1 PUSH1 0x0 SWAP1 JUMP JUMPDEST PUSH4 0x4E487B71 PUSH1 0xE0 SHL PUSH1 0x0 MSTORE PUSH1 0x32 PUSH1 0x4 MSTORE PUSH1 0x24 PUSH1 0x0 REVERT JUMPDEST SWAP1 PUSH1 0x1 DUP3 DUP2 SHR SWAP3 AND DUP1 ISZERO PUSH2 0x7FA JUMPI JUMPDEST PUSH1 0x20 DUP4 LT EQ PUSH2 0x7E4 JUMPI JUMP JUMPDEST PUSH4 0x4E487B71 PUSH1 0xE0 SHL PUSH1 0x0 MSTORE PUSH1 0x22 PUSH1 0x4 MSTORE PUSH1 0x24 PUSH1 0x0 REVERT JUMPDEST SWAP2 PUSH1 0x7F AND SWAP2 PUSH2 0x7D9 JUMP JUMPDEST SWAP1 PUSH1 0x40 MLOAD SWAP2 DUP3 PUSH1 0x0 DUP3 SLOAD PUSH2 0x817 DUP2 PUSH2 0x7CA JUMP JUMPDEST SWAP1 DUP2 DUP5 MSTORE PUSH1 0x20 SWAP5 PUSH1 0x1 SWAP2 PUSH1 0x1 DUP2 AND SWAP1 DUP2 PUSH1 0x0 EQ PUSH2 0x887 JUMPI POP PUSH1 0x1 EQ PUSH2 0x848 JUMPI JUMPDEST POP POP POP PUSH2 0x846 SWAP3 POP SUB DUP4 PUSH2 0x776 JUMP JUMPDEST JUMP JUMPDEST PUSH1 0x0 SWAP1 DUP2 MSTORE DUP6 DUP2 KECCAK256 SWAP6 SWAP4 POP SWAP2 SWAP1 JUMPDEST DUP2 DUP4 LT PUSH2 0x86F JUMPI POP POP PUSH2 0x846 SWAP4 POP DUP3 ADD ADD CODESIZE DUP1 DUP1 PUSH2 0x837 JUMP JUMPDEST DUP6 SLOAD DUP9 DUP5 ADD DUP6 ADD MSTORE SWAP5 DUP6 ADD SWAP5 DUP8 SWAP5 POP SWAP2 DUP4 ADD SWAP2 PUSH2 0x856 JUMP JUMPDEST SWAP3 POP POP POP PUSH2 0x846 SWAP5 SWAP3 POP PUSH1 0xFF NOT AND DUP3 DUP5 ADD MSTORE ISZERO ISZERO PUSH1 0x5 SHL DUP3 ADD ADD CODESIZE DUP1 DUP1 PUSH2 0x837 JUMP JUMPDEST SWAP2 SWAP1 DUP3 MLOAD SWAP3 DUP4 DUP3 MSTORE PUSH1 0x0 JUMPDEST DUP5 DUP2 LT PUSH2 0x8D5 JUMPI POP POP DUP3 PUSH1 0x0 PUSH1 0x20 DUP1 SWAP5 SWAP6 DUP5 ADD ADD MSTORE PUSH1 0x1F DUP1 NOT SWAP2 ADD AND ADD ADD SWAP1 JUMP JUMPDEST PUSH1 0x20 DUP2 DUP4 ADD DUP2 ADD MLOAD DUP5 DUP4 ADD DUP3 ADD MSTORE ADD PUSH2 0x8B4 JUMP INVALID LOG2 PUSH5 0x6970667358 0x22 SLT KECCAK256 PUSH22 0xA409B5267817CB12055843093A1932E1CF60FECDA446 SWAP10 MUL 0xF7 BALANCE 0x24 0xED SWAP14 PUSH17 0xEE64736F6C634300081800330000000000 "},"gasEstimates":{"creation":{"codeDepositCost":"467000","executionCost":"24741","totalCost":"491741"},"external":{"claims(address,uint256)":"infinite","getClaims(address)":"infinite","owner()":"2296","processClaim(address,uint256,bool)":"30700","submitClaim(address,uint256,string)":"infinite"}},"methodIdentifiers":{"claims(address,uint256)":"ab541a85","getClaims(address)":"d0d46a0b","owner()":"8da5cb5b","processClaim(address,uint256,bool)":"93e888e1","submitClaim(address,uint256,string)":"34dc3c66"}},"storageLayout":{"storage":[{"astId":20,"contract":"contracts/ClaimManagement.sol:ClaimManagement","label":"claims","offset":0,"slot":"0","type":"t_mapping(t_address,t_array(t_struct(Claim)14_storage)dyn_storage)"},{"astId":22,"contract":"contracts/ClaimManagement.sol:ClaimManagement","label":"owner","offset":0,"slot":"1","type":"t_address"}],"types":{"t_address":{"encoding":"inplace","label":"address","numberOfBytes":"20"},"t_array(t_struct(Claim)14_storage)dyn_storage":{"base":"t_struct(Claim)14_storage","encoding":"dynamic_array","label":"struct ClaimManagement.Claim[]","numberOfBytes":"32"},"t_bool":{"encoding":"inplace","label":"bool","numberOfBytes":"1"},"t_mapping(t_address,t_array(t_struct(Claim)14_storage)dyn_storage)":{"encoding":"mapping","key":"t_address","label":"mapping(address => struct ClaimManagement.Claim[])","numberOfBytes":"32","value":"t_array(t_struct(Claim)14_storage)dyn_storage"},"t_string_storage":{"encoding":"bytes","label":"string","numberOfBytes":"32"},"t_struct(Claim)14_storage":{"encoding":"inplace","label":"struct ClaimManagement.Claim","members":[{"astId":3,"contract":"contracts/ClaimManagement.sol:ClaimManagement","label":"policyAddress","offset":0,"slot":"0","type":"t_address"},{"astId":5,"contract":"contracts/ClaimManagement.sol:ClaimManagement","label":"claimAmount","offset":0,"slot":"1","type":"t_uint256"},{"astId":7,"contract":"contracts/ClaimManagement.sol:ClaimManagement","label":"claimReason","offset":0,"slot":"2","type":"t_string_storage"},{"astId":9,"contract":"contracts/ClaimManagement.sol:ClaimManagement","label":"isProcessed","offset":0,"slot":"3","type":"t_bool"},{"astId":11,"contract":"contracts/ClaimManagement.sol:ClaimManagement","label":"isApproved","offset":1,"slot":"3","type":"t_bool"},{"astId":13,"contract":"contracts/ClaimManagement.sol:ClaimManagement","label":"claimDate","offset":0,"slot":"4","type":"t_uint256"}],"numberOfBytes":"160"},"t_uint256":{"encoding":"inplace","label":"uint256","numberOfBytes":"32"}}},"userdoc":{"kind":"user","methods":{},"version":1}}}}