{"contracts/PolicyFactory.sol":{"PolicyFactory":{"abi":[{"inputs":[{"internalType":"address","name":"_client","type":"address"},{"internalType":"string","name":"_name","type":"string"},{"internalType":"string","name":"_dateOfBirth","type":"string"},{"internalType":"string","name":"_gender","type":"string"},{"internalType":"uint256","name":"_premium","type":"uint256"},{"internalType":"uint256","name":"_coverageAmount","type":"uint256"},{"internalType":"uint256","name":"_duration","type":"uint256"}],"name":"createPolicyContract","outputs":[],"stateMutability":"nonpayable","type":"function"},{"inputs":[{"internalType":"uint256","name":"","type":"uint256"}],"name":"deployedPolicies","outputs":[{"internalType":"contract PolicyContract","name":"","type":"address"}],"stateMutability":"view","type":"function"},{"inputs":[],"name":"getDeployedPolicies","outputs":[{"internalType":"contract PolicyContract[]","name":"","type":"address[]"}],"stateMutability":"view","type":"function"}],"devdoc":{"kind":"dev","methods":{},"version":1},"evm":{"bytecode":{"linkReferences":{},"object":"6080806040523461001657611204908161001c8239f35b600080fdfe6080604081815260048036101561001557600080fd5b600092833560e01c9081630b3ce01514610266575080631d15978d1461008957638890533f1461004457600080fd5b346100855760203660031901126100855735918054831015610082575061006c6020926103bf565b905491519160018060a01b039160031b1c168152f35b80fd5b8280fd5b5034610085576003199060e036830112610262576001600160a01b03928135848116919082900361025e5767ffffffffffffffff60243581811161025a576100d49036908601610363565b92604435828111610256576100ec9036908701610363565b606435838111610252576101039036908801610363565b908451610d85808201908282108783111761023f579180918d9695949361044a8339039085f08015610235578a1698893b1561023157889261017a6101899361016a8a519b8c988998636edc818f60e01b8a5289015260e0602489015260e4880190610409565b9084878303016044880152610409565b91848303016064850152610409565b608435608483015260a43560a483015260c43560c4830152038183895af1801561022757610201575b505050835490680100000000000000008210156101ee57508060016101d9920185556103bf565b909283549160031b92831b921b191617905580f35b634e487b7160e01b855260419052602484fd5b82969396116102145752923880806101b2565b634e487b7160e01b835260418652602483fd5b82513d89823e3d90fd5b8480fd5b86513d86823e3d90fd5b634e487b7160e01b8d5260418a5260248dfd5b8980fd5b8880fd5b8780fd5b8580fd5b8380fd5b84849134610327578160031936011261032757919080549081845260209384810180938380527f290decd9548b62a8d60345a988386fc84ba6bc95484008f6362f93160ef3e56390845b81811061030a57505050816102c691038261032b565b83519485948186019282875251809352850193925b8281106102ea57505050500390f35b83516001600160a01b0316855286955093810193928101926001016102db565b82546001600160a01b0316845292880192600192830192016102b0565b5080fd5b90601f8019910116810190811067ffffffffffffffff82111761034d57604052565b634e487b7160e01b600052604160045260246000fd5b81601f820112156103ba5780359067ffffffffffffffff821161034d5760405192610398601f8401601f19166020018561032b565b828452602083830101116103ba57816000926020809301838601378301015290565b600080fd5b9060009182548110156103f5578280527f290decd9548b62a8d60345a988386fc84ba6bc95484008f6362f93160ef3e563019190565b634e487b7160e01b83526032600452602483fd5b919082519283825260005b848110610435575050826000602080949584010152601f8019910116010190565b60208183018101518483018201520161041456fe6080806040523461002857600080546001600160a01b03191633179055610d57908161002e8239f35b600080fdfe6080604052600436101561001257600080fd5b60003560e01c806344ada30514610a945780636edc818f146104675780639955f67c1461043e578063aa37e8c4146102ac578063cc0380101461016b578063d3e894831461008c5763de54d4291461006957600080fd5b34610087576000366003190112610087576020600154604051908152f35b600080fd5b3461008757602036600319011261008757600435600090815260026020526040902080546001600160a01b03166100c560018301610bcc565b916100d260028201610bcc565b6100de60038301610bcc565b91600481015492600582015460068301549061014460078501549361013660ff6009600889015498015416976101286040519c8d809d6020610140928392815201528d0190610b52565b908b820360408d0152610b52565b9089820360608b0152610b52565b95608088015260a087015260c086015260e085015261010084015215156101208301520390f35b346100875760203660031901126100875760043580600052600260205260406000209060405161019a81610abc565b82546001600160a01b039081168252906101b660018501610bcc565b60208201908152936101ca60028201610bcc565b60408301908152906101de60038201610bcc565b91606084019283526004820154958660808601526005830154978860a08701526006840154968760c088015260078501548060e08901526008860154916101009683888b01526009015460ff16986101209915158a82015251169361024290610c71565b925194519651986040519b8c9b610140968d5260208d015260408c015260608b015260808a015260a0890152151560c08801528060e0880152860161028691610b52565b908582039086015261029791610b52565b90838203908401526102a891610b52565b0390f35b346100875760603660031901126100875760243560043560443567ffffffffffffffff8111610087576102e3903690600401610afb565b91816000526020906002825260406000209360098501805460ff8116156103f95786546001600160a01b031696338890036103b6576005015484116103715760ff1916905560405191825260609282018390527f2eef77a6825c6c3ee60b1efc16534872d9997ba98c06dfe1f2284d912f4d480a92829161036691830190610b52565b4260408301520390a3005b60405162461bcd60e51b815260048101869052601e60248201527f436c61696d20616d6f756e74206578636565647320636f7665726167652e00006044820152606490fd5b6064866040519062461bcd60e51b825280600483015260248201527f4f6e6c792074686520706f6c696379686f6c6465722063616e20636c61696d2e6044820152fd5b60405162461bcd60e51b815260048101869052601b60248201527f506f6c696379206973206e6f206c6f6e676572206163746976652e00000000006044820152606490fd5b34610087576000366003190112610087576000546040516001600160a01b039091168152602090f35b346100875760e0366003190112610087576004356001600160a01b03811681036100875760243567ffffffffffffffff8111610087576104ab903690600401610afb565b60443567ffffffffffffffff8111610087576104cb903690600401610afb565b9160643567ffffffffffffffff8111610087576104ec903690600401610afb565b6000549092906001600160a01b03163303610a3257600154926000198414610a1c576001840160015562015180948560c435029560c43587041460c435151715610a1c578542014211610a1c576040519261054684610abc565b60018060a01b0385168452602084015260408301526060820152608435608082015260a43560a082015260c43560c08201524260e08201528342016101008201526001610120820152826000526002602052604060002060018060a01b038251166bffffffffffffffffffffffff60a01b825416178155602082015180519067ffffffffffffffff82116108665781906105e36001850154610b92565b601f81116109c9575b50602090601f83116001146109575760009261094c575b50508160011b916000199060031b1c19161760018201555b604082015180519067ffffffffffffffff82116108665781906106416002850154610b92565b601f81116108f9575b50602090601f83116001146108875760009261087c575b50508160011b916000199060031b1c19161760028201555b606082015180519067ffffffffffffffff82116108665761069d6003840154610b92565b601f811161081f575b50602090601f8311600114610784577fef748308c2d5ff1a7d773a689969e7090b4d5d911b95e585cc635b14bc37648195938360a0969461012094600994600092610779575b50508160011b916000199060031b1c19161760038201555b6080840151600482015585840151600582015560c0840151600682015560e08401516007820155610100840151600882015501910151151560ff801983541691161790556040519460a4358652608435602087015260c435604087015242606087015242016080860152600180831b031693a3005b015190508b806106ec565b906003840160005260206000209160005b601f1985168110610807575093600184610120946009947fef748308c2d5ff1a7d773a689969e7090b4d5d911b95e585cc635b14bc3764819a9860a09a98601f198116106107ee575b505050811b016003820155610704565b015160001960f88460031b161c191690558b80806107de565b91926020600181928685015181550194019201610795565b600384016000526020600020601f840160051c81016020851061085f575b601f830160051c820181106108535750506106a6565b6000815560010161083d565b508061083d565b634e487b7160e01b600052604160045260246000fd5b015190508780610661565b9250600284016000526020600020906000935b601f19841685106108de576001945083601f198116106108c5575b505050811b016002820155610679565b015160001960f88460031b161c191690558780806108b5565b8181015183556020948501946001909301929091019061089a565b909150600284016000526020600020601f840160051c810160208510610945575b90849392915b601f830160051c8201811061093657505061064a565b60008155859450600101610920565b508061091a565b015190508780610603565b9250600184016000526020600020906000935b601f19841685106109ae576001945083601f19811610610995575b505050811b01600182015561061b565b015160001960f88460031b161c19169055878080610985565b8181015183556020948501946001909301929091019061096a565b909150600184016000526020600020601f840160051c810160208510610a15575b90849392915b601f830160051c82018110610a065750506105ec565b600081558594506001016109f0565b50806109ea565b634e487b7160e01b600052601160045260246000fd5b60405162461bcd60e51b815260206004820152603460248201527f4f6e6c792074686520696e737572616e63652070726f76696465722063616e206044820152733832b93337b936903a3434b99030b1ba34b7b71760611b6064820152608490fd5b34610087576020366003190112610087576020610ab2600435610c71565b6040519015158152f35b610140810190811067ffffffffffffffff82111761086657604052565b90601f8019910116810190811067ffffffffffffffff82111761086657604052565b81601f820112156100875780359067ffffffffffffffff82116108665760405192610b30601f8401601f191660200185610ad9565b8284526020838301011161008757816000926020809301838601378301015290565b919082519283825260005b848110610b7e575050826000602080949584010152601f8019910116010190565b602081830181015184830182015201610b5d565b90600182811c92168015610bc2575b6020831014610bac57565b634e487b7160e01b600052602260045260246000fd5b91607f1691610ba1565b90604051918260008254610bdf81610b92565b90818452602094600191600181169081600014610c4f5750600114610c10575b505050610c0e92500383610ad9565b565b600090815285812095935091905b818310610c37575050610c0e9350820101388080610bff565b85548884018501529485019487945091830191610c1e565b92505050610c0e94925060ff191682840152151560051b820101388080610bff565b60005260026020526101206040600020604051610c8d81610abc565b81546001600160a01b03168152610ca660018301610bcc565b6020820152610cb760028301610bcc565b6040820152610cc860038301610bcc565b606082015260048201546080820152600582015460a0820152600682015460c0820152600782015460e082015260ff6009600884015493846101008501520154161515928391015281610d19575090565b90504211159056fea26469706673582212206ffa9c9d668a2905c83f1e7ac2cb74e48eb3fad097ab48267c57b0bd4047011764736f6c63430008180033a26469706673582212208da4a78836c2daa5dc357f8dd8cbcfdf711e3cca35b1a64818a0dcd0d9668b6264736f6c63430008180033","opcodes":"PUSH1 0x80 DUP1 PUSH1 0x40 MSTORE CALLVALUE PUSH2 0x16 JUMPI PUSH2 0x1204 SWAP1 DUP2 PUSH2 0x1C DUP3 CODECOPY RETURN JUMPDEST PUSH1 0x0 DUP1 REVERT INVALID PUSH1 0x80 PUSH1 0x40 DUP2 DUP2 MSTORE PUSH1 0x4 DUP1 CALLDATASIZE LT ISZERO PUSH2 0x15 JUMPI PUSH1 0x0 DUP1 REVERT JUMPDEST PUSH1 0x0 SWAP3 DUP4 CALLDATALOAD PUSH1 0xE0 SHR SWAP1 DUP2 PUSH4 0xB3CE015 EQ PUSH2 0x266 JUMPI POP DUP1 PUSH4 0x1D15978D EQ PUSH2 0x89 JUMPI PUSH4 0x8890533F EQ PUSH2 0x44 JUMPI PUSH1 0x0 DUP1 REVERT JUMPDEST CALLVALUE PUSH2 0x85 JUMPI PUSH1 0x20 CALLDATASIZE PUSH1 0x3 NOT ADD SLT PUSH2 0x85 JUMPI CALLDATALOAD SWAP2 DUP1 SLOAD DUP4 LT ISZERO PUSH2 0x82 JUMPI POP PUSH2 0x6C PUSH1 0x20 SWAP3 PUSH2 0x3BF JUMP JUMPDEST SWAP1 SLOAD SWAP2 MLOAD SWAP2 PUSH1 0x1 DUP1 PUSH1 0xA0 SHL SUB SWAP2 PUSH1 0x3 SHL SHR AND DUP2 MSTORE RETURN JUMPDEST DUP1 REVERT JUMPDEST DUP3 DUP1 REVERT JUMPDEST POP CALLVALUE PUSH2 0x85 JUMPI PUSH1 0x3 NOT SWAP1 PUSH1 0xE0 CALLDATASIZE DUP4 ADD SLT PUSH2 0x262 JUMPI PUSH1 0x1 PUSH1 0x1 PUSH1 0xA0 SHL SUB SWAP3 DUP2 CALLDATALOAD DUP5 DUP2 AND SWAP2 SWAP1 DUP3 SWAP1 SUB PUSH2 0x25E JUMPI PUSH8 0xFFFFFFFFFFFFFFFF PUSH1 0x24 CALLDATALOAD DUP2 DUP2 GT PUSH2 0x25A JUMPI PUSH2 0xD4 SWAP1 CALLDATASIZE SWAP1 DUP7 ADD PUSH2 0x363 JUMP JUMPDEST SWAP3 PUSH1 0x44 CALLDATALOAD DUP3 DUP2 GT PUSH2 0x256 JUMPI PUSH2 0xEC SWAP1 CALLDATASIZE SWAP1 DUP8 ADD PUSH2 0x363 JUMP JUMPDEST PUSH1 0x64 CALLDATALOAD DUP4 DUP2 GT PUSH2 0x252 JUMPI PUSH2 0x103 SWAP1 CALLDATASIZE SWAP1 DUP9 ADD PUSH2 0x363 JUMP JUMPDEST SWAP1 DUP5 MLOAD PUSH2 0xD85 DUP1 DUP3 ADD SWAP1 DUP3 DUP3 LT DUP8 DUP4 GT OR PUSH2 0x23F JUMPI SWAP2 DUP1 SWAP2 DUP14 SWAP7 SWAP6 SWAP5 SWAP4 PUSH2 0x44A DUP4 CODECOPY SUB SWAP1 DUP6 CREATE DUP1 ISZERO PUSH2 0x235 JUMPI DUP11 AND SWAP9 DUP10 EXTCODESIZE ISZERO PUSH2 0x231 JUMPI DUP9 SWAP3 PUSH2 0x17A PUSH2 0x189 SWAP4 PUSH2 0x16A DUP11 MLOAD SWAP12 DUP13 SWAP9 DUP10 SWAP9 PUSH4 0x6EDC818F PUSH1 0xE0 SHL DUP11 MSTORE DUP10 ADD MSTORE PUSH1 0xE0 PUSH1 0x24 DUP10 ADD MSTORE PUSH1 0xE4 DUP9 ADD SWAP1 PUSH2 0x409 JUMP JUMPDEST SWAP1 DUP5 DUP8 DUP4 SUB ADD PUSH1 0x44 DUP9 ADD MSTORE PUSH2 0x409 JUMP JUMPDEST SWAP2 DUP5 DUP4 SUB ADD PUSH1 0x64 DUP6 ADD MSTORE PUSH2 0x409 JUMP JUMPDEST PUSH1 0x84 CALLDATALOAD PUSH1 0x84 DUP4 ADD MSTORE PUSH1 0xA4 CALLDATALOAD PUSH1 0xA4 DUP4 ADD MSTORE PUSH1 0xC4 CALLDATALOAD PUSH1 0xC4 DUP4 ADD MSTORE SUB DUP2 DUP4 DUP10 GAS CALL DUP1 ISZERO PUSH2 0x227 JUMPI PUSH2 0x201 JUMPI JUMPDEST POP POP POP DUP4 SLOAD SWAP1 PUSH9 0x10000000000000000 DUP3 LT ISZERO PUSH2 0x1EE JUMPI POP DUP1 PUSH1 0x1 PUSH2 0x1D9 SWAP3 ADD DUP6 SSTORE PUSH2 0x3BF JUMP JUMPDEST SWAP1 SWAP3 DUP4 SLOAD SWAP2 PUSH1 0x3 SHL SWAP3 DUP4 SHL SWAP3 SHL NOT AND OR SWAP1 SSTORE DUP1 RETURN JUMPDEST PUSH4 0x4E487B71 PUSH1 0xE0 SHL DUP6 MSTORE PUSH1 0x41 SWAP1 MSTORE PUSH1 0x24 DUP5 REVERT JUMPDEST DUP3 SWAP7 SWAP4 SWAP7 GT PUSH2 0x214 JUMPI MSTORE SWAP3 CODESIZE DUP1 DUP1 PUSH2 0x1B2 JUMP JUMPDEST PUSH4 0x4E487B71 PUSH1 0xE0 SHL DUP4 MSTORE PUSH1 0x41 DUP7 MSTORE PUSH1 0x24 DUP4 REVERT JUMPDEST DUP3 MLOAD RETURNDATASIZE DUP10 DUP3 RETURNDATACOPY RETURNDATASIZE SWAP1 REVERT JUMPDEST DUP5 DUP1 REVERT JUMPDEST DUP7 MLOAD RETURNDATASIZE DUP7 DUP3 RETURNDATACOPY RETURNDATASIZE SWAP1 REVERT JUMPDEST PUSH4 0x4E487B71 PUSH1 0xE0 SHL DUP14 MSTORE PUSH1 0x41 DUP11 MSTORE PUSH1 0x24 DUP14 REVERT JUMPDEST DUP10 DUP1 REVERT JUMPDEST DUP9 DUP1 REVERT JUMPDEST DUP8 DUP1 REVERT JUMPDEST DUP6 DUP1 REVERT JUMPDEST DUP4 DUP1 REVERT JUMPDEST DUP5 DUP5 SWAP2 CALLVALUE PUSH2 0x327 JUMPI DUP2 PUSH1 0x3 NOT CALLDATASIZE ADD SLT PUSH2 0x327 JUMPI SWAP2 SWAP1 DUP1 SLOAD SWAP1 DUP2 DUP5 MSTORE PUSH1 0x20 SWAP4 DUP5 DUP2 ADD DUP1 SWAP4 DUP4 DUP1 MSTORE PUSH32 0x290DECD9548B62A8D60345A988386FC84BA6BC95484008F6362F93160EF3E563 SWAP1 DUP5 JUMPDEST DUP2 DUP2 LT PUSH2 0x30A JUMPI POP POP POP DUP2 PUSH2 0x2C6 SWAP2 SUB DUP3 PUSH2 0x32B JUMP JUMPDEST DUP4 MLOAD SWAP5 DUP6 SWAP5 DUP2 DUP7 ADD SWAP3 DUP3 DUP8 MSTORE MLOAD DUP1 SWAP4 MSTORE DUP6 ADD SWAP4 SWAP3 JUMPDEST DUP3 DUP2 LT PUSH2 0x2EA JUMPI POP POP POP POP SUB SWAP1 RETURN JUMPDEST DUP4 MLOAD PUSH1 0x1 PUSH1 0x1 PUSH1 0xA0 SHL SUB AND DUP6 MSTORE DUP7 SWAP6 POP SWAP4 DUP2 ADD SWAP4 SWAP3 DUP2 ADD SWAP3 PUSH1 0x1 ADD PUSH2 0x2DB JUMP JUMPDEST DUP3 SLOAD PUSH1 0x1 PUSH1 0x1 PUSH1 0xA0 SHL SUB AND DUP5 MSTORE SWAP3 DUP9 ADD SWAP3 PUSH1 0x1 SWAP3 DUP4 ADD SWAP3 ADD PUSH2 0x2B0 JUMP JUMPDEST POP DUP1 REVERT JUMPDEST SWAP1 PUSH1 0x1F DUP1 NOT SWAP2 ADD AND DUP2 ADD SWAP1 DUP2 LT PUSH8 0xFFFFFFFFFFFFFFFF DUP3 GT OR PUSH2 0x34D JUMPI PUSH1 0x40 MSTORE JUMP JUMPDEST PUSH4 0x4E487B71 PUSH1 0xE0 SHL PUSH1 0x0 MSTORE PUSH1 0x41 PUSH1 0x4 MSTORE PUSH1 0x24 PUSH1 0x0 REVERT JUMPDEST DUP2 PUSH1 0x1F DUP3 ADD SLT ISZERO PUSH2 0x3BA JUMPI DUP1 CALLDATALOAD SWAP1 PUSH8 0xFFFFFFFFFFFFFFFF DUP3 GT PUSH2 0x34D JUMPI PUSH1 0x40 MLOAD SWAP3 PUSH2 0x398 PUSH1 0x1F DUP5 ADD PUSH1 0x1F NOT AND PUSH1 0x20 ADD DUP6 PUSH2 0x32B JUMP JUMPDEST DUP3 DUP5 MSTORE PUSH1 0x20 DUP4 DUP4 ADD ADD GT PUSH2 0x3BA JUMPI DUP2 PUSH1 0x0 SWAP3 PUSH1 0x20 DUP1 SWAP4 ADD DUP4 DUP7 ADD CALLDATACOPY DUP4 ADD ADD MSTORE SWAP1 JUMP JUMPDEST PUSH1 0x0 DUP1 REVERT JUMPDEST SWAP1 PUSH1 0x0 SWAP2 DUP3 SLOAD DUP2 LT ISZERO PUSH2 0x3F5 JUMPI DUP3 DUP1 MSTORE PUSH32 0x290DECD9548B62A8D60345A988386FC84BA6BC95484008F6362F93160EF3E563 ADD SWAP2 SWAP1 JUMP JUMPDEST PUSH4 0x4E487B71 PUSH1 0xE0 SHL DUP4 MSTORE PUSH1 0x32 PUSH1 0x4 MSTORE PUSH1 0x24 DUP4 REVERT JUMPDEST SWAP2 SWAP1 DUP3 MLOAD SWAP3 DUP4 DUP3 MSTORE PUSH1 0x0 JUMPDEST DUP5 DUP2 LT PUSH2 0x435 JUMPI POP POP DUP3 PUSH1 0x0 PUSH1 0x20 DUP1 SWAP5 SWAP6 DUP5 ADD ADD MSTORE PUSH1 0x1F DUP1 NOT SWAP2 ADD AND ADD ADD SWAP1 JUMP JUMPDEST PUSH1 0x20 DUP2 DUP4 ADD DUP2 ADD MLOAD DUP5 DUP4 ADD DUP3 ADD MSTORE ADD PUSH2 0x414 JUMP INVALID PUSH1 0x80 DUP1 PUSH1 0x40 MSTORE CALLVALUE PUSH2 0x28 JUMPI PUSH1 0x0 DUP1 SLOAD PUSH1 0x1 PUSH1 0x1 PUSH1 0xA0 SHL SUB NOT AND CALLER OR SWAP1 SSTORE PUSH2 0xD57 SWAP1 DUP2 PUSH2 0x2E DUP3 CODECOPY RETURN JUMPDEST PUSH1 0x0 DUP1 REVERT INVALID PUSH1 0x80 PUSH1 0x40 MSTORE PUSH1 0x4 CALLDATASIZE LT ISZERO PUSH2 0x12 JUMPI PUSH1 0x0 DUP1 REVERT JUMPDEST PUSH1 0x0 CALLDATALOAD PUSH1 0xE0 SHR DUP1 PUSH4 0x44ADA305 EQ PUSH2 0xA94 JUMPI DUP1 PUSH4 0x6EDC818F EQ PUSH2 0x467 JUMPI DUP1 PUSH4 0x9955F67C EQ PUSH2 0x43E JUMPI DUP1 PUSH4 0xAA37E8C4 EQ PUSH2 0x2AC JUMPI DUP1 PUSH4 0xCC038010 EQ PUSH2 0x16B JUMPI DUP1 PUSH4 0xD3E89483 EQ PUSH2 0x8C JUMPI PUSH4 0xDE54D429 EQ PUSH2 0x69 JUMPI PUSH1 0x0 DUP1 REVERT JUMPDEST CALLVALUE PUSH2 0x87 JUMPI PUSH1 0x0 CALLDATASIZE PUSH1 0x3 NOT ADD SLT PUSH2 0x87 JUMPI PUSH1 0x20 PUSH1 0x1 SLOAD PUSH1 0x40 MLOAD SWAP1 DUP2 MSTORE RETURN JUMPDEST PUSH1 0x0 DUP1 REVERT JUMPDEST CALLVALUE PUSH2 0x87 JUMPI PUSH1 0x20 CALLDATASIZE PUSH1 0x3 NOT ADD SLT PUSH2 0x87 JUMPI PUSH1 0x4 CALLDATALOAD PUSH1 0x0 SWAP1 DUP2 MSTORE PUSH1 0x2 PUSH1 0x20 MSTORE PUSH1 0x40 SWAP1 KECCAK256 DUP1 SLOAD PUSH1 0x1 PUSH1 0x1 PUSH1 0xA0 SHL SUB AND PUSH2 0xC5 PUSH1 0x1 DUP4 ADD PUSH2 0xBCC JUMP JUMPDEST SWAP2 PUSH2 0xD2 PUSH1 0x2 DUP3 ADD PUSH2 0xBCC JUMP JUMPDEST PUSH2 0xDE PUSH1 0x3 DUP4 ADD PUSH2 0xBCC JUMP JUMPDEST SWAP2 PUSH1 0x4 DUP2 ADD SLOAD SWAP3 PUSH1 0x5 DUP3 ADD SLOAD PUSH1 0x6 DUP4 ADD SLOAD SWAP1 PUSH2 0x144 PUSH1 0x7 DUP6 ADD SLOAD SWAP4 PUSH2 0x136 PUSH1 0xFF PUSH1 0x9 PUSH1 0x8 DUP10 ADD SLOAD SWAP9 ADD SLOAD AND SWAP8 PUSH2 0x128 PUSH1 0x40 MLOAD SWAP13 DUP14 DUP1 SWAP14 PUSH1 0x20 PUSH2 0x140 SWAP3 DUP4 SWAP3 DUP2 MSTORE ADD MSTORE DUP14 ADD SWAP1 PUSH2 0xB52 JUMP JUMPDEST SWAP1 DUP12 DUP3 SUB PUSH1 0x40 DUP14 ADD MSTORE PUSH2 0xB52 JUMP JUMPDEST SWAP1 DUP10 DUP3 SUB PUSH1 0x60 DUP12 ADD MSTORE PUSH2 0xB52 JUMP JUMPDEST SWAP6 PUSH1 0x80 DUP9 ADD MSTORE PUSH1 0xA0 DUP8 ADD MSTORE PUSH1 0xC0 DUP7 ADD MSTORE PUSH1 0xE0 DUP6 ADD MSTORE PUSH2 0x100 DUP5 ADD MSTORE ISZERO ISZERO PUSH2 0x120 DUP4 ADD MSTORE SUB SWAP1 RETURN JUMPDEST CALLVALUE PUSH2 0x87 JUMPI PUSH1 0x20 CALLDATASIZE PUSH1 0x3 NOT ADD SLT PUSH2 0x87 JUMPI PUSH1 0x4 CALLDATALOAD DUP1 PUSH1 0x0 MSTORE PUSH1 0x2 PUSH1 0x20 MSTORE PUSH1 0x40 PUSH1 0x0 KECCAK256 SWAP1 PUSH1 0x40 MLOAD PUSH2 0x19A DUP2 PUSH2 0xABC JUMP JUMPDEST DUP3 SLOAD PUSH1 0x1 PUSH1 0x1 PUSH1 0xA0 SHL SUB SWAP1 DUP2 AND DUP3 MSTORE SWAP1 PUSH2 0x1B6 PUSH1 0x1 DUP6 ADD PUSH2 0xBCC JUMP JUMPDEST PUSH1 0x20 DUP3 ADD SWAP1 DUP2 MSTORE SWAP4 PUSH2 0x1CA PUSH1 0x2 DUP3 ADD PUSH2 0xBCC JUMP JUMPDEST PUSH1 0x40 DUP4 ADD SWAP1 DUP2 MSTORE SWAP1 PUSH2 0x1DE PUSH1 0x3 DUP3 ADD PUSH2 0xBCC JUMP JUMPDEST SWAP2 PUSH1 0x60 DUP5 ADD SWAP3 DUP4 MSTORE PUSH1 0x4 DUP3 ADD SLOAD SWAP6 DUP7 PUSH1 0x80 DUP7 ADD MSTORE PUSH1 0x5 DUP4 ADD SLOAD SWAP8 DUP9 PUSH1 0xA0 DUP8 ADD MSTORE PUSH1 0x6 DUP5 ADD SLOAD SWAP7 DUP8 PUSH1 0xC0 DUP9 ADD MSTORE PUSH1 0x7 DUP6 ADD SLOAD DUP1 PUSH1 0xE0 DUP10 ADD MSTORE PUSH1 0x8 DUP7 ADD SLOAD SWAP2 PUSH2 0x100 SWAP7 DUP4 DUP9 DUP12 ADD MSTORE PUSH1 0x9 ADD SLOAD PUSH1 0xFF AND SWAP9 PUSH2 0x120 SWAP10 ISZERO ISZERO DUP11 DUP3 ADD MSTORE MLOAD AND SWAP4 PUSH2 0x242 SWAP1 PUSH2 0xC71 JUMP JUMPDEST SWAP3 MLOAD SWAP5 MLOAD SWAP7 MLOAD SWAP9 PUSH1 0x40 MLOAD SWAP12 DUP13 SWAP12 PUSH2 0x140 SWAP7 DUP14 MSTORE PUSH1 0x20 DUP14 ADD MSTORE PUSH1 0x40 DUP13 ADD MSTORE PUSH1 0x60 DUP12 ADD MSTORE PUSH1 0x80 DUP11 ADD MSTORE PUSH1 0xA0 DUP10 ADD MSTORE ISZERO ISZERO PUSH1 0xC0 DUP9 ADD MSTORE DUP1 PUSH1 0xE0 DUP9 ADD MSTORE DUP7 ADD PUSH2 0x286 SWAP2 PUSH2 0xB52 JUMP JUMPDEST SWAP1 DUP6 DUP3 SUB SWAP1 DUP7 ADD MSTORE PUSH2 0x297 SWAP2 PUSH2 0xB52 JUMP JUMPDEST SWAP1 DUP4 DUP3 SUB SWAP1 DUP5 ADD MSTORE PUSH2 0x2A8 SWAP2 PUSH2 0xB52 JUMP JUMPDEST SUB SWAP1 RETURN JUMPDEST CALLVALUE PUSH2 0x87 JUMPI PUSH1 0x60 CALLDATASIZE PUSH1 0x3 NOT ADD SLT PUSH2 0x87 JUMPI PUSH1 0x24 CALLDATALOAD PUSH1 0x4 CALLDATALOAD PUSH1 0x44 CALLDATALOAD PUSH8 0xFFFFFFFFFFFFFFFF DUP2 GT PUSH2 0x87 JUMPI PUSH2 0x2E3 SWAP1 CALLDATASIZE SWAP1 PUSH1 0x4 ADD PUSH2 0xAFB JUMP JUMPDEST SWAP2 DUP2 PUSH1 0x0 MSTORE PUSH1 0x20 SWAP1 PUSH1 0x2 DUP3 MSTORE PUSH1 0x40 PUSH1 0x0 KECCAK256 SWAP4 PUSH1 0x9 DUP6 ADD DUP1 SLOAD PUSH1 0xFF DUP2 AND ISZERO PUSH2 0x3F9 JUMPI DUP7 SLOAD PUSH1 0x1 PUSH1 0x1 PUSH1 0xA0 SHL SUB AND SWAP7 CALLER DUP9 SWAP1 SUB PUSH2 0x3B6 JUMPI PUSH1 0x5 ADD SLOAD DUP5 GT PUSH2 0x371 JUMPI PUSH1 0xFF NOT AND SWAP1 SSTORE PUSH1 0x40 MLOAD SWAP2 DUP3 MSTORE PUSH1 0x60 SWAP3 DUP3 ADD DUP4 SWAP1 MSTORE PUSH32 0x2EEF77A6825C6C3EE60B1EFC16534872D9997BA98C06DFE1F2284D912F4D480A SWAP3 DUP3 SWAP2 PUSH2 0x366 SWAP2 DUP4 ADD SWAP1 PUSH2 0xB52 JUMP JUMPDEST TIMESTAMP PUSH1 0x40 DUP4 ADD MSTORE SUB SWAP1 LOG3 STOP JUMPDEST PUSH1 0x40 MLOAD PUSH3 0x461BCD PUSH1 0xE5 SHL DUP2 MSTORE PUSH1 0x4 DUP2 ADD DUP7 SWAP1 MSTORE PUSH1 0x1E PUSH1 0x24 DUP3 ADD MSTORE PUSH32 0x436C61696D20616D6F756E74206578636565647320636F7665726167652E0000 PUSH1 0x44 DUP3 ADD MSTORE PUSH1 0x64 SWAP1 REVERT JUMPDEST PUSH1 0x64 DUP7 PUSH1 0x40 MLOAD SWAP1 PUSH3 0x461BCD PUSH1 0xE5 SHL DUP3 MSTORE DUP1 PUSH1 0x4 DUP4 ADD MSTORE PUSH1 0x24 DUP3 ADD MSTORE PUSH32 0x4F6E6C792074686520706F6C696379686F6C6465722063616E20636C61696D2E PUSH1 0x44 DUP3 ADD MSTORE REVERT JUMPDEST PUSH1 0x40 MLOAD PUSH3 0x461BCD PUSH1 0xE5 SHL DUP2 MSTORE PUSH1 0x4 DUP2 ADD DUP7 SWAP1 MSTORE PUSH1 0x1B PUSH1 0x24 DUP3 ADD MSTORE PUSH32 0x506F6C696379206973206E6F206C6F6E676572206163746976652E0000000000 PUSH1 0x44 DUP3 ADD MSTORE PUSH1 0x64 SWAP1 REVERT JUMPDEST CALLVALUE PUSH2 0x87 JUMPI PUSH1 0x0 CALLDATASIZE PUSH1 0x3 NOT ADD SLT PUSH2 0x87 JUMPI PUSH1 0x0 SLOAD PUSH1 0x40 MLOAD PUSH1 0x1 PUSH1 0x1 PUSH1 0xA0 SHL SUB SWAP1 SWAP2 AND DUP2 MSTORE PUSH1 0x20 SWAP1 RETURN JUMPDEST CALLVALUE PUSH2 0x87 JUMPI PUSH1 0xE0 CALLDATASIZE PUSH1 0x3 NOT ADD SLT PUSH2 0x87 JUMPI PUSH1 0x4 CALLDATALOAD PUSH1 0x1 PUSH1 0x1 PUSH1 0xA0 SHL SUB DUP2 AND DUP2 SUB PUSH2 0x87 JUMPI PUSH1 0x24 CALLDATALOAD PUSH8 0xFFFFFFFFFFFFFFFF DUP2 GT PUSH2 0x87 JUMPI PUSH2 0x4AB SWAP1 CALLDATASIZE SWAP1 PUSH1 0x4 ADD PUSH2 0xAFB JUMP JUMPDEST PUSH1 0x44 CALLDATALOAD PUSH8 0xFFFFFFFFFFFFFFFF DUP2 GT PUSH2 0x87 JUMPI PUSH2 0x4CB SWAP1 CALLDATASIZE SWAP1 PUSH1 0x4 ADD PUSH2 0xAFB JUMP JUMPDEST SWAP2 PUSH1 0x64 CALLDATALOAD PUSH8 0xFFFFFFFFFFFFFFFF DUP2 GT PUSH2 0x87 JUMPI PUSH2 0x4EC SWAP1 CALLDATASIZE SWAP1 PUSH1 0x4 ADD PUSH2 0xAFB JUMP JUMPDEST PUSH1 0x0 SLOAD SWAP1 SWAP3 SWAP1 PUSH1 0x1 PUSH1 0x1 PUSH1 0xA0 SHL SUB AND CALLER SUB PUSH2 0xA32 JUMPI PUSH1 0x1 SLOAD SWAP3 PUSH1 0x0 NOT DUP5 EQ PUSH2 0xA1C JUMPI PUSH1 0x1 DUP5 ADD PUSH1 0x1 SSTORE PUSH3 0x15180 SWAP5 DUP6 PUSH1 0xC4 CALLDATALOAD MUL SWAP6 PUSH1 0xC4 CALLDATALOAD DUP8 DIV EQ PUSH1 0xC4 CALLDATALOAD ISZERO OR ISZERO PUSH2 0xA1C JUMPI DUP6 TIMESTAMP ADD TIMESTAMP GT PUSH2 0xA1C JUMPI PUSH1 0x40 MLOAD SWAP3 PUSH2 0x546 DUP5 PUSH2 0xABC JUMP JUMPDEST PUSH1 0x1 DUP1 PUSH1 0xA0 SHL SUB DUP6 AND DUP5 MSTORE PUSH1 0x20 DUP5 ADD MSTORE PUSH1 0x40 DUP4 ADD MSTORE PUSH1 0x60 DUP3 ADD MSTORE PUSH1 0x84 CALLDATALOAD PUSH1 0x80 DUP3 ADD MSTORE PUSH1 0xA4 CALLDATALOAD PUSH1 0xA0 DUP3 ADD MSTORE PUSH1 0xC4 CALLDATALOAD PUSH1 0xC0 DUP3 ADD MSTORE TIMESTAMP PUSH1 0xE0 DUP3 ADD MSTORE DUP4 TIMESTAMP ADD PUSH2 0x100 DUP3 ADD MSTORE PUSH1 0x1 PUSH2 0x120 DUP3 ADD MSTORE DUP3 PUSH1 0x0 MSTORE PUSH1 0x2 PUSH1 0x20 MSTORE PUSH1 0x40 PUSH1 0x0 KECCAK256 PUSH1 0x1 DUP1 PUSH1 0xA0 SHL SUB DUP3 MLOAD AND PUSH12 0xFFFFFFFFFFFFFFFFFFFFFFFF PUSH1 0xA0 SHL DUP3 SLOAD AND OR DUP2 SSTORE PUSH1 0x20 DUP3 ADD MLOAD DUP1 MLOAD SWAP1 PUSH8 0xFFFFFFFFFFFFFFFF DUP3 GT PUSH2 0x866 JUMPI DUP2 SWAP1 PUSH2 0x5E3 PUSH1 0x1 DUP6 ADD SLOAD PUSH2 0xB92 JUMP JUMPDEST PUSH1 0x1F DUP2 GT PUSH2 0x9C9 JUMPI JUMPDEST POP PUSH1 0x20 SWAP1 PUSH1 0x1F DUP4 GT PUSH1 0x1 EQ PUSH2 0x957 JUMPI PUSH1 0x0 SWAP3 PUSH2 0x94C JUMPI JUMPDEST POP POP DUP2 PUSH1 0x1 SHL SWAP2 PUSH1 0x0 NOT SWAP1 PUSH1 0x3 SHL SHR NOT AND OR PUSH1 0x1 DUP3 ADD SSTORE JUMPDEST PUSH1 0x40 DUP3 ADD MLOAD DUP1 MLOAD SWAP1 PUSH8 0xFFFFFFFFFFFFFFFF DUP3 GT PUSH2 0x866 JUMPI DUP2 SWAP1 PUSH2 0x641 PUSH1 0x2 DUP6 ADD SLOAD PUSH2 0xB92 JUMP JUMPDEST PUSH1 0x1F DUP2 GT PUSH2 0x8F9 JUMPI JUMPDEST POP PUSH1 0x20 SWAP1 PUSH1 0x1F DUP4 GT PUSH1 0x1 EQ PUSH2 0x887 JUMPI PUSH1 0x0 SWAP3 PUSH2 0x87C JUMPI JUMPDEST POP POP DUP2 PUSH1 0x1 SHL SWAP2 PUSH1 0x0 NOT SWAP1 PUSH1 0x3 SHL SHR NOT AND OR PUSH1 0x2 DUP3 ADD SSTORE JUMPDEST PUSH1 0x60 DUP3 ADD MLOAD DUP1 MLOAD SWAP1 PUSH8 0xFFFFFFFFFFFFFFFF DUP3 GT PUSH2 0x866 JUMPI PUSH2 0x69D PUSH1 0x3 DUP5 ADD SLOAD PUSH2 0xB92 JUMP JUMPDEST PUSH1 0x1F DUP2 GT PUSH2 0x81F JUMPI JUMPDEST POP PUSH1 0x20 SWAP1 PUSH1 0x1F DUP4 GT PUSH1 0x1 EQ PUSH2 0x784 JUMPI PUSH32 0xEF748308C2D5FF1A7D773A689969E7090B4D5D911B95E585CC635B14BC376481 SWAP6 SWAP4 DUP4 PUSH1 0xA0 SWAP7 SWAP5 PUSH2 0x120 SWAP5 PUSH1 0x9 SWAP5 PUSH1 0x0 SWAP3 PUSH2 0x779 JUMPI JUMPDEST POP POP DUP2 PUSH1 0x1 SHL SWAP2 PUSH1 0x0 NOT SWAP1 PUSH1 0x3 SHL SHR NOT AND OR PUSH1 0x3 DUP3 ADD SSTORE JUMPDEST PUSH1 0x80 DUP5 ADD MLOAD PUSH1 0x4 DUP3 ADD SSTORE DUP6 DUP5 ADD MLOAD PUSH1 0x5 DUP3 ADD SSTORE PUSH1 0xC0 DUP5 ADD MLOAD PUSH1 0x6 DUP3 ADD SSTORE PUSH1 0xE0 DUP5 ADD MLOAD PUSH1 0x7 DUP3 ADD SSTORE PUSH2 0x100 DUP5 ADD MLOAD PUSH1 0x8 DUP3 ADD SSTORE ADD SWAP2 ADD MLOAD ISZERO ISZERO PUSH1 0xFF DUP1 NOT DUP4 SLOAD AND SWAP2 AND OR SWAP1 SSTORE PUSH1 0x40 MLOAD SWAP5 PUSH1 0xA4 CALLDATALOAD DUP7 MSTORE PUSH1 0x84 CALLDATALOAD PUSH1 0x20 DUP8 ADD MSTORE PUSH1 0xC4 CALLDATALOAD PUSH1 0x40 DUP8 ADD MSTORE TIMESTAMP PUSH1 0x60 DUP8 ADD MSTORE TIMESTAMP ADD PUSH1 0x80 DUP7 ADD MSTORE PUSH1 0x1 DUP1 DUP4 SHL SUB AND SWAP4 LOG3 STOP JUMPDEST ADD MLOAD SWAP1 POP DUP12 DUP1 PUSH2 0x6EC JUMP JUMPDEST SWAP1 PUSH1 0x3 DUP5 ADD PUSH1 0x0 MSTORE PUSH1 0x20 PUSH1 0x0 KECCAK256 SWAP2 PUSH1 0x0 JUMPDEST PUSH1 0x1F NOT DUP6 AND DUP2 LT PUSH2 0x807 JUMPI POP SWAP4 PUSH1 0x1 DUP5 PUSH2 0x120 SWAP5 PUSH1 0x9 SWAP5 PUSH32 0xEF748308C2D5FF1A7D773A689969E7090B4D5D911B95E585CC635B14BC376481 SWAP11 SWAP9 PUSH1 0xA0 SWAP11 SWAP9 PUSH1 0x1F NOT DUP2 AND LT PUSH2 0x7EE JUMPI JUMPDEST POP POP POP DUP2 SHL ADD PUSH1 0x3 DUP3 ADD SSTORE PUSH2 0x704 JUMP JUMPDEST ADD MLOAD PUSH1 0x0 NOT PUSH1 0xF8 DUP5 PUSH1 0x3 SHL AND SHR NOT AND SWAP1 SSTORE DUP12 DUP1 DUP1 PUSH2 0x7DE JUMP JUMPDEST SWAP2 SWAP3 PUSH1 0x20 PUSH1 0x1 DUP2 SWAP3 DUP7 DUP6 ADD MLOAD DUP2 SSTORE ADD SWAP5 ADD SWAP3 ADD PUSH2 0x795 JUMP JUMPDEST PUSH1 0x3 DUP5 ADD PUSH1 0x0 MSTORE PUSH1 0x20 PUSH1 0x0 KECCAK256 PUSH1 0x1F DUP5 ADD PUSH1 0x5 SHR DUP2 ADD PUSH1 0x20 DUP6 LT PUSH2 0x85F JUMPI JUMPDEST PUSH1 0x1F DUP4 ADD PUSH1 0x5 SHR DUP3 ADD DUP2 LT PUSH2 0x853 JUMPI POP POP PUSH2 0x6A6 JUMP JUMPDEST PUSH1 0x0 DUP2 SSTORE PUSH1 0x1 ADD PUSH2 0x83D JUMP JUMPDEST POP DUP1 PUSH2 0x83D JUMP JUMPDEST PUSH4 0x4E487B71 PUSH1 0xE0 SHL PUSH1 0x0 MSTORE PUSH1 0x41 PUSH1 0x4 MSTORE PUSH1 0x24 PUSH1 0x0 REVERT JUMPDEST ADD MLOAD SWAP1 POP DUP8 DUP1 PUSH2 0x661 JUMP JUMPDEST SWAP3 POP PUSH1 0x2 DUP5 ADD PUSH1 0x0 MSTORE PUSH1 0x20 PUSH1 0x0 KECCAK256 SWAP1 PUSH1 0x0 SWAP4 JUMPDEST PUSH1 0x1F NOT DUP5 AND DUP6 LT PUSH2 0x8DE JUMPI PUSH1 0x1 SWAP5 POP DUP4 PUSH1 0x1F NOT DUP2 AND LT PUSH2 0x8C5 JUMPI JUMPDEST POP POP POP DUP2 SHL ADD PUSH1 0x2 DUP3 ADD SSTORE PUSH2 0x679 JUMP JUMPDEST ADD MLOAD PUSH1 0x0 NOT PUSH1 0xF8 DUP5 PUSH1 0x3 SHL AND SHR NOT AND SWAP1 SSTORE DUP8 DUP1 DUP1 PUSH2 0x8B5 JUMP JUMPDEST DUP2 DUP2 ADD MLOAD DUP4 SSTORE PUSH1 0x20 SWAP5 DUP6 ADD SWAP5 PUSH1 0x1 SWAP1 SWAP4 ADD SWAP3 SWAP1 SWAP2 ADD SWAP1 PUSH2 0x89A JUMP JUMPDEST SWAP1 SWAP2 POP PUSH1 0x2 DUP5 ADD PUSH1 0x0 MSTORE PUSH1 0x20 PUSH1 0x0 KECCAK256 PUSH1 0x1F DUP5 ADD PUSH1 0x5 SHR DUP2 ADD PUSH1 0x20 DUP6 LT PUSH2 0x945 JUMPI JUMPDEST SWAP1 DUP5 SWAP4 SWAP3 SWAP2 JUMPDEST PUSH1 0x1F DUP4 ADD PUSH1 0x5 SHR DUP3 ADD DUP2 LT PUSH2 0x936 JUMPI POP POP PUSH2 0x64A JUMP JUMPDEST PUSH1 0x0 DUP2 SSTORE DUP6 SWAP5 POP PUSH1 0x1 ADD PUSH2 0x920 JUMP JUMPDEST POP DUP1 PUSH2 0x91A JUMP JUMPDEST ADD MLOAD SWAP1 POP DUP8 DUP1 PUSH2 0x603 JUMP JUMPDEST SWAP3 POP PUSH1 0x1 DUP5 ADD PUSH1 0x0 MSTORE PUSH1 0x20 PUSH1 0x0 KECCAK256 SWAP1 PUSH1 0x0 SWAP4 JUMPDEST PUSH1 0x1F NOT DUP5 AND DUP6 LT PUSH2 0x9AE JUMPI PUSH1 0x1 SWAP5 POP DUP4 PUSH1 0x1F NOT DUP2 AND LT PUSH2 0x995 JUMPI JUMPDEST POP POP POP DUP2 SHL ADD PUSH1 0x1 DUP3 ADD SSTORE PUSH2 0x61B JUMP JUMPDEST ADD MLOAD PUSH1 0x0 NOT PUSH1 0xF8 DUP5 PUSH1 0x3 SHL AND SHR NOT AND SWAP1 SSTORE DUP8 DUP1 DUP1 PUSH2 0x985 JUMP JUMPDEST DUP2 DUP2 ADD MLOAD DUP4 SSTORE PUSH1 0x20 SWAP5 DUP6 ADD SWAP5 PUSH1 0x1 SWAP1 SWAP4 ADD SWAP3 SWAP1 SWAP2 ADD SWAP1 PUSH2 0x96A JUMP JUMPDEST SWAP1 SWAP2 POP PUSH1 0x1 DUP5 ADD PUSH1 0x0 MSTORE PUSH1 0x20 PUSH1 0x0 KECCAK256 PUSH1 0x1F DUP5 ADD PUSH1 0x5 SHR DUP2 ADD PUSH1 0x20 DUP6 LT PUSH2 0xA15 JUMPI JUMPDEST SWAP1 DUP5 SWAP4 SWAP3 SWAP2 JUMPDEST PUSH1 0x1F DUP4 ADD PUSH1 0x5 SHR DUP3 ADD DUP2 LT PUSH2 0xA06 JUMPI POP POP PUSH2 0x5EC JUMP JUMPDEST PUSH1 0x0 DUP2 SSTORE DUP6 SWAP5 POP PUSH1 0x1 ADD PUSH2 0x9F0 JUMP JUMPDEST POP DUP1 PUSH2 0x9EA JUMP JUMPDEST PUSH4 0x4E487B71 PUSH1 0xE0 SHL PUSH1 0x0 MSTORE PUSH1 0x11 PUSH1 0x4 MSTORE PUSH1 0x24 PUSH1 0x0 REVERT JUMPDEST PUSH1 0x40 MLOAD PUSH3 0x461BCD PUSH1 0xE5 SHL DUP2 MSTORE PUSH1 0x20 PUSH1 0x4 DUP3 ADD MSTORE PUSH1 0x34 PUSH1 0x24 DUP3 ADD MSTORE PUSH32 0x4F6E6C792074686520696E737572616E63652070726F76696465722063616E20 PUSH1 0x44 DUP3 ADD MSTORE PUSH20 0x3832B93337B936903A3434B99030B1BA34B7B717 PUSH1 0x61 SHL PUSH1 0x64 DUP3 ADD MSTORE PUSH1 0x84 SWAP1 REVERT JUMPDEST CALLVALUE PUSH2 0x87 JUMPI PUSH1 0x20 CALLDATASIZE PUSH1 0x3 NOT ADD SLT PUSH2 0x87 JUMPI PUSH1 0x20 PUSH2 0xAB2 PUSH1 0x4 CALLDATALOAD PUSH2 0xC71 JUMP JUMPDEST PUSH1 0x40 MLOAD SWAP1 ISZERO ISZERO DUP2 MSTORE RETURN JUMPDEST PUSH2 0x140 DUP2 ADD SWAP1 DUP2 LT PUSH8 0xFFFFFFFFFFFFFFFF DUP3 GT OR PUSH2 0x866 JUMPI PUSH1 0x40 MSTORE JUMP JUMPDEST SWAP1 PUSH1 0x1F DUP1 NOT SWAP2 ADD AND DUP2 ADD SWAP1 DUP2 LT PUSH8 0xFFFFFFFFFFFFFFFF DUP3 GT OR PUSH2 0x866 JUMPI PUSH1 0x40 MSTORE JUMP JUMPDEST DUP2 PUSH1 0x1F DUP3 ADD SLT ISZERO PUSH2 0x87 JUMPI DUP1 CALLDATALOAD SWAP1 PUSH8 0xFFFFFFFFFFFFFFFF DUP3 GT PUSH2 0x866 JUMPI PUSH1 0x40 MLOAD SWAP3 PUSH2 0xB30 PUSH1 0x1F DUP5 ADD PUSH1 0x1F NOT AND PUSH1 0x20 ADD DUP6 PUSH2 0xAD9 JUMP JUMPDEST DUP3 DUP5 MSTORE PUSH1 0x20 DUP4 DUP4 ADD ADD GT PUSH2 0x87 JUMPI DUP2 PUSH1 0x0 SWAP3 PUSH1 0x20 DUP1 SWAP4 ADD DUP4 DUP7 ADD CALLDATACOPY DUP4 ADD ADD MSTORE SWAP1 JUMP JUMPDEST SWAP2 SWAP1 DUP3 MLOAD SWAP3 DUP4 DUP3 MSTORE PUSH1 0x0 JUMPDEST DUP5 DUP2 LT PUSH2 0xB7E JUMPI POP POP DUP3 PUSH1 0x0 PUSH1 0x20 DUP1 SWAP5 SWAP6 DUP5 ADD ADD MSTORE PUSH1 0x1F DUP1 NOT SWAP2 ADD AND ADD ADD SWAP1 JUMP JUMPDEST PUSH1 0x20 DUP2 DUP4 ADD DUP2 ADD MLOAD DUP5 DUP4 ADD DUP3 ADD MSTORE ADD PUSH2 0xB5D JUMP JUMPDEST SWAP1 PUSH1 0x1 DUP3 DUP2 SHR SWAP3 AND DUP1 ISZERO PUSH2 0xBC2 JUMPI JUMPDEST PUSH1 0x20 DUP4 LT EQ PUSH2 0xBAC JUMPI JUMP JUMPDEST PUSH4 0x4E487B71 PUSH1 0xE0 SHL PUSH1 0x0 MSTORE PUSH1 0x22 PUSH1 0x4 MSTORE PUSH1 0x24 PUSH1 0x0 REVERT JUMPDEST SWAP2 PUSH1 0x7F AND SWAP2 PUSH2 0xBA1 JUMP JUMPDEST SWAP1 PUSH1 0x40 MLOAD SWAP2 DUP3 PUSH1 0x0 DUP3 SLOAD PUSH2 0xBDF DUP2 PUSH2 0xB92 JUMP JUMPDEST SWAP1 DUP2 DUP5 MSTORE PUSH1 0x20 SWAP5 PUSH1 0x1 SWAP2 PUSH1 0x1 DUP2 AND SWAP1 DUP2 PUSH1 0x0 EQ PUSH2 0xC4F JUMPI POP PUSH1 0x1 EQ PUSH2 0xC10 JUMPI JUMPDEST POP POP POP PUSH2 0xC0E SWAP3 POP SUB DUP4 PUSH2 0xAD9 JUMP JUMPDEST JUMP JUMPDEST PUSH1 0x0 SWAP1 DUP2 MSTORE DUP6 DUP2 KECCAK256 SWAP6 SWAP4 POP SWAP2 SWAP1 JUMPDEST DUP2 DUP4 LT PUSH2 0xC37 JUMPI POP POP PUSH2 0xC0E SWAP4 POP DUP3 ADD ADD CODESIZE DUP1 DUP1 PUSH2 0xBFF JUMP JUMPDEST DUP6 SLOAD DUP9 DUP5 ADD DUP6 ADD MSTORE SWAP5 DUP6 ADD SWAP5 DUP8 SWAP5 POP SWAP2 DUP4 ADD SWAP2 PUSH2 0xC1E JUMP JUMPDEST SWAP3 POP POP POP PUSH2 0xC0E SWAP5 SWAP3 POP PUSH1 0xFF NOT AND DUP3 DUP5 ADD MSTORE ISZERO ISZERO PUSH1 0x5 SHL DUP3 ADD ADD CODESIZE DUP1 DUP1 PUSH2 0xBFF JUMP JUMPDEST PUSH1 0x0 MSTORE PUSH1 0x2 PUSH1 0x20 MSTORE PUSH2 0x120 PUSH1 0x40 PUSH1 0x0 KECCAK256 PUSH1 0x40 MLOAD PUSH2 0xC8D DUP2 PUSH2 0xABC JUMP JUMPDEST DUP2 SLOAD PUSH1 0x1 PUSH1 0x1 PUSH1 0xA0 SHL SUB AND DUP2 MSTORE PUSH2 0xCA6 PUSH1 0x1 DUP4 ADD PUSH2 0xBCC JUMP JUMPDEST PUSH1 0x20 DUP3 ADD MSTORE PUSH2 0xCB7 PUSH1 0x2 DUP4 ADD PUSH2 0xBCC JUMP JUMPDEST PUSH1 0x40 DUP3 ADD MSTORE PUSH2 0xCC8 PUSH1 0x3 DUP4 ADD PUSH2 0xBCC JUMP JUMPDEST PUSH1 0x60 DUP3 ADD MSTORE PUSH1 0x4 DUP3 ADD SLOAD PUSH1 0x80 DUP3 ADD MSTORE PUSH1 0x5 DUP3 ADD SLOAD PUSH1 0xA0 DUP3 ADD MSTORE PUSH1 0x6 DUP3 ADD SLOAD PUSH1 0xC0 DUP3 ADD MSTORE PUSH1 0x7 DUP3 ADD SLOAD PUSH1 0xE0 DUP3 ADD MSTORE PUSH1 0xFF PUSH1 0x9 PUSH1 0x8 DUP5 ADD SLOAD SWAP4 DUP5 PUSH2 0x100 DUP6 ADD MSTORE ADD SLOAD AND ISZERO ISZERO SWAP3 DUP4 SWAP2 ADD MSTORE DUP2 PUSH2 0xD19 JUMPI POP SWAP1 JUMP JUMPDEST SWAP1 POP TIMESTAMP GT ISZERO SWAP1 JUMP INVALID LOG2 PUSH5 0x6970667358 0x22 SLT KECCAK256 PUSH16 0xFA9C9D668A2905C83F1E7AC2CB74E48E 0xB3 STATICCALL 0xD0 SWAP8 0xAB BASEFEE 0x26 PUSH29 0x57B0BD4047011764736F6C63430008180033A26469706673582212208D LOG4 0xA7 DUP9 CALLDATASIZE 0xC2 0xDA 0xA5 0xDC CALLDATALOAD PUSH32 0x8DD8CBCFDF711E3CCA35B1A64818A0DCD0D9668B6264736F6C63430008180033 "},"gasEstimates":{"creation":{"codeDepositCost":"922400","executionCost":"970","totalCost":"923370"},"external":{"createPolicyContract(address,string,string,string,uint256,uint256,uint256)":"infinite","deployedPolicies(uint256)":"6656","getDeployedPolicies()":"infinite"}},"methodIdentifiers":{"createPolicyContract(address,string,string,string,uint256,uint256,uint256)":"1d15978d","deployedPolicies(uint256)":"8890533f","getDeployedPolicies()":"0b3ce015"}},"storageLayout":{"storage":[{"astId":448,"contract":"contracts/PolicyFactory.sol:PolicyFactory","label":"deployedPolicies","offset":0,"slot":"0","type":"t_array(t_contract(PolicyContract)441)dyn_storage"}],"types":{"t_array(t_contract(PolicyContract)441)dyn_storage":{"base":"t_contract(PolicyContract)441","encoding":"dynamic_array","label":"contract PolicyContract[]","numberOfBytes":"32"},"t_contract(PolicyContract)441":{"encoding":"inplace","label":"contract PolicyContract","numberOfBytes":"20"}}},"userdoc":{"kind":"user","methods":{},"version":1}}}}